{"contracts/Staking.sol":{"Staking":{"abi":[{"inputs":[{"internalType":"contract IERC20","name":"ierc20","type":"address"}],"stateMutability":"nonpayable","type":"constructor"},{"anonymous":false,"inputs":[{"indexed":false,"internalType":"address","name":"account","type":"address"},{"indexed":false,"internalType":"uint256","name":"amount","type":"uint256"}],"name":"AddReward","type":"event"},{"anonymous":false,"inputs":[{"indexed":false,"internalType":"address","name":"account","type":"address"},{"indexed":false,"internalType":"uint256","name":"amount","type":"uint256"}],"name":"ApproveReward","type":"event"},{"anonymous":false,"inputs":[{"indexed":false,"internalType":"address","name":"account","type":"address"},{"indexed":false,"internalType":"uint256","name":"amount","type":"uint256"}],"name":"Deposit","type":"event"},{"anonymous":false,"inputs":[{"indexed":false,"internalType":"uint256","name":"duration","type":"uint256"}],"name":"Duration","type":"event"},{"anonymous":false,"inputs":[{"indexed":true,"internalType":"address","name":"previousOwner","type":"address"},{"indexed":true,"internalType":"address","name":"newOwner","type":"address"}],"name":"OwnershipTransferred","type":"event"},{"anonymous":false,"inputs":[{"indexed":false,"internalType":"address","name":"account","type":"address"},{"indexed":false,"internalType":"uint256","name":"amount","type":"uint256"}],"name":"Withdraw","type":"event"},{"inputs":[],"name":"_duration","outputs":[{"internalType":"uint256","name":"","type":"uint256"}],"stateMutability":"view","type":"function"},{"inputs":[],"name":"_ierc20","outputs":[{"internalType":"contract IERC20","name":"","type":"address"}],"stateMutability":"view","type":"function"},{"inputs":[],"name":"_percentReward","outputs":[{"internalType":"uint256","name":"","type":"uint256"}],"stateMutability":"view","type":"function"},{"inputs":[{"internalType":"uint256","name":"amount","type":"uint256"}],"name":"addReward","outputs":[],"stateMutability":"nonpayable","type":"function"},{"inputs":[{"internalType":"address","name":"_spender","type":"address"},{"internalType":"uint256","name":"amount","type":"uint256"}],"name":"approveReward","outputs":[],"stateMutability":"nonpayable","type":"function"},{"inputs":[{"internalType":"address","name":"account","type":"address"}],"name":"balanceOf","outputs":[{"internalType":"uint256","name":"","type":"uint256"}],"stateMutability":"view","type":"function"},{"inputs":[{"internalType":"uint256","name":"amount","type":"uint256"}],"name":"deposit","outputs":[],"stateMutability":"nonpayable","type":"function"},{"inputs":[],"name":"getDuration","outputs":[{"internalType":"uint256","name":"","type":"uint256"}],"stateMutability":"view","type":"function"},{"inputs":[{"internalType":"address","name":"account","type":"address"}],"name":"lastDepositTime","outputs":[{"internalType":"uint256","name":"","type":"uint256"}],"stateMutability":"view","type":"function"},{"inputs":[],"name":"owner","outputs":[{"internalType":"address","name":"","type":"address"}],"stateMutability":"view","type":"function"},{"inputs":[],"name":"renounceOwnership","outputs":[],"stateMutability":"nonpayable","type":"function"},{"inputs":[],"name":"rewardTotal","outputs":[{"internalType":"uint256","name":"","type":"uint256"}],"stateMutability":"view","type":"function"},{"inputs":[{"internalType":"uint256","name":"duration","type":"uint256"}],"name":"setDuration","outputs":[],"stateMutability":"nonpayable","type":"function"},{"inputs":[],"name":"totalStaked","outputs":[{"internalType":"uint256","name":"","type":"uint256"}],"stateMutability":"view","type":"function"},{"inputs":[{"internalType":"address","name":"newOwner","type":"address"}],"name":"transferOwnership","outputs":[],"stateMutability":"nonpayable","type":"function"},{"inputs":[],"name":"withdraw","outputs":[],"stateMutability":"nonpayable","type":"function"}],"evm":{"bytecode":{"linkReferences":{},"object":"60806040526002600555600060065560006007556224ea006008553480156200002757600080fd5b50604051620019cd380380620019cd83398181016040528101906200004d9190620001ff565b6200006d62000061620000b560201b60201c565b620000bd60201b60201c565b80600160006101000a81548173ffffffffffffffffffffffffffffffffffffffff021916908373ffffffffffffffffffffffffffffffffffffffff1602179055505062000231565b600033905090565b60008060009054906101000a900473ffffffffffffffffffffffffffffffffffffffff169050816000806101000a81548173ffffffffffffffffffffffffffffffffffffffff021916908373ffffffffffffffffffffffffffffffffffffffff1602179055508173ffffffffffffffffffffffffffffffffffffffff168173ffffffffffffffffffffffffffffffffffffffff167f8be0079c531659141344cd1fd0a4f28419497f9722a3daafe3b4186f6b6457e060405160405180910390a35050565b600080fd5b600073ffffffffffffffffffffffffffffffffffffffff82169050919050565b6000620001b38262000186565b9050919050565b6000620001c782620001a6565b9050919050565b620001d981620001ba565b8114620001e557600080fd5b50565b600081519050620001f981620001ce565b92915050565b60006020828403121562000218576200021762000181565b5b60006200022884828501620001e8565b91505092915050565b61178c80620002416000396000f3fe608060405234801561001057600080fd5b50600436106101005760003560e01c80638da5cb5b11610097578063e90bfc4b11610066578063e90bfc4b14610263578063f2fde38b14610281578063f6be71d11461029d578063f959680b146102b957610100565b80638da5cb5b146101ed578063ad2e8c9b1461020b578063b53b26a114610229578063b6b55f251461024757610100565b806370a08231116100d357806370a0823114610179578063715018a6146101a957806374de4ec4146101b3578063817b1cd2146101cf57610100565b80630252775314610105578063245c7c60146101355780633ccfd60b14610153578063424d40061461015d575b600080fd5b61011f600480360381019061011a9190610f8b565b6102d7565b60405161012c9190610fd1565b60405180910390f35b61013d610320565b60405161014a9190610fd1565b60405180910390f35b61015b610326565b005b61017760048036038101906101729190611018565b610628565b005b610193600480360381019061018e9190610f8b565b6106b8565b6040516101a09190610fd1565b60405180910390f35b6101b1610701565b005b6101cd60048036038101906101c89190611058565b610715565b005b6101d761093b565b6040516101e49190610fd1565b60405180910390f35b6101f5610941565b6040516102029190611094565b60405180910390f35b61021361096a565b6040516102209190610fd1565b60405180910390f35b610231610974565b60405161023e9190610fd1565b60405180910390f35b610261600480360381019061025c9190611058565b61097a565b005b61026b610c15565b604051610278919061110e565b60405180910390f35b61029b60048036038101906102969190610f8b565b610c3b565b005b6102b760048036038101906102b29190611058565b610cbe565b005b6102c1610d4d565b6040516102ce9190610fd1565b60405180910390f35b6000600260008373ffffffffffffffffffffffffffffffffffffffff1673ffffffffffffffffffffffffffffffffffffffff168152602001908152602001600020549050919050565b60085481565b4260085460026000610336610d53565b73ffffffffffffffffffffffffffffffffffffffff1673ffffffffffffffffffffffffffffffffffffffff1681526020019081526020016000205461037b9190611158565b11156103bc576040517f08c379a00000000000000000000000000000000000000000000000000000000081526004016103b3906111e9565b60405180910390fd5b6000600360006103ca610d53565b73ffffffffffffffffffffffffffffffffffffffff1673ffffffffffffffffffffffffffffffffffffffff168152602001908152602001600020549050600060036000610415610d53565b73ffffffffffffffffffffffffffffffffffffffff1673ffffffffffffffffffffffffffffffffffffffff16815260200190815260200160002081905550600061046682610461610d53565b610d5b565b9050816007600082825461047a9190611209565b92505081905550600060075410156104c7576040517f08c379a00000000000000000000000000000000000000000000000000000000081526004016104be90611289565b60405180910390fd5b80600660008282546104d99190611209565b9250508190555060006006541015610526576040517f08c379a000000000000000000000000000000000000000000000000000000000815260040161051d9061131b565b60405180910390fd5b600160009054906101000a900473ffffffffffffffffffffffffffffffffffffffff1673ffffffffffffffffffffffffffffffffffffffff1663a9059cbb61056c610d53565b83856105789190611158565b6040518363ffffffff1660e01b815260040161059592919061133b565b6020604051808303816000875af11580156105b4573d6000803e3d6000fd5b505050506040513d601f19601f820116820180604052508101906105d8919061139c565b507f884edad9ce6fa2440d8a54cc123490eb96d2768479d49ff9c7366125a9424364610602610d53565b828461060e9190611158565b60405161061c92919061133b565b60405180910390a15050565b610630610de6565b80600460008473ffffffffffffffffffffffffffffffffffffffff1673ffffffffffffffffffffffffffffffffffffffff168152602001908152602001600020819055507fb7a9a9243f1b40c58dca321d1be1dd151a31cc9f61b7160781ebfe62ac99415a61069d610d53565b826040516106ac92919061133b565b60405180910390a15050565b6000600360008373ffffffffffffffffffffffffffffffffffffffff1673ffffffffffffffffffffffffffffffffffffffff168152602001908152602001600020549050919050565b610709610de6565b6107136000610e64565b565b8060046000610722610d53565b73ffffffffffffffffffffffffffffffffffffffff1673ffffffffffffffffffffffffffffffffffffffff16815260200190815260200160002054101561079e576040517f08c379a00000000000000000000000000000000000000000000000000000000081526004016107959061143b565b60405180910390fd5b80600460006107ab610d53565b73ffffffffffffffffffffffffffffffffffffffff1673ffffffffffffffffffffffffffffffffffffffff168152602001908152602001600020546107f09190611209565b600460006107fc610d53565b73ffffffffffffffffffffffffffffffffffffffff1673ffffffffffffffffffffffffffffffffffffffff16815260200190815260200160002081905550806006546108489190611158565b600681905550600160009054906101000a900473ffffffffffffffffffffffffffffffffffffffff1673ffffffffffffffffffffffffffffffffffffffff166323b872dd610894610d53565b30846040518463ffffffff1660e01b81526004016108b49392919061145b565b6020604051808303816000875af11580156108d3573d6000803e3d6000fd5b505050506040513d601f19601f820116820180604052508101906108f7919061139c565b507f9f15a78649bd76613c4a49ca8a67ae948862a0eee791ca3d0380853f9afa624f610921610d53565b8260405161093092919061133b565b60405180910390a150565b60075481565b60008060009054906101000a900473ffffffffffffffffffffffffffffffffffffffff16905090565b6000600854905090565b60055481565b60006109d36003600061098b610d53565b73ffffffffffffffffffffffffffffffffffffffff1673ffffffffffffffffffffffffffffffffffffffff168152602001908152602001600020546109ce610d53565b610d5b565b9050606460055460646109e69190611158565b82846007546109f59190611158565b6109ff9190611158565b610a099190611492565b610a139190611503565b6006541015610a57576040517f08c379a0000000000000000000000000000000000000000000000000000000008152600401610a4e906115a6565b60405180910390fd5b8082610a639190611158565b60076000828254610a749190611158565b925050819055508082610a879190611158565b60036000610a93610d53565b73ffffffffffffffffffffffffffffffffffffffff1673ffffffffffffffffffffffffffffffffffffffff1681526020019081526020016000206000828254610adc9190611158565b925050819055504260026000610af0610d53565b73ffffffffffffffffffffffffffffffffffffffff1673ffffffffffffffffffffffffffffffffffffffff16815260200190815260200160002081905550600160009054906101000a900473ffffffffffffffffffffffffffffffffffffffff1673ffffffffffffffffffffffffffffffffffffffff166323b872dd3230856040518463ffffffff1660e01b8152600401610b8d9392919061145b565b6020604051808303816000875af1158015610bac573d6000803e3d6000fd5b505050506040513d601f19601f82011682018060405250810190610bd0919061139c565b507fe1fffcc4923d04b559f4d29a8bfc6cda04eb5b0d3c460751c2402c5c5cc9109c610bfa610d53565b83604051610c0992919061133b565b60405180910390a15050565b600160009054906101000a900473ffffffffffffffffffffffffffffffffffffffff1681565b610c43610de6565b600073ffffffffffffffffffffffffffffffffffffffff168173ffffffffffffffffffffffffffffffffffffffff1603610cb2576040517f08c379a0000000000000000000000000000000000000000000000000000000008152600401610ca990611638565b60405180910390fd5b610cbb81610e64565b50565b610cc6610de6565b62093a80811015610d0c576040517f08c379a0000000000000000000000000000000000000000000000000000000008152600401610d03906116ca565b60405180910390fd5b806008819055507fda04197eff7312b09391ac91a9abd15f1c06bc64fa29883c65945fbf36ee8b7981604051610d429190610fd1565b60405180910390a150565b60065481565b600033905090565b600080600260008473ffffffffffffffffffffffffffffffffffffffff1673ffffffffffffffffffffffffffffffffffffffff1681526020019081526020016000205442610da99190611209565b90506064600854610dba9190611492565b8460055483610dc99190611492565b610dd39190611492565b610ddd9190611503565b91505092915050565b610dee610d53565b73ffffffffffffffffffffffffffffffffffffffff16610e0c610941565b73ffffffffffffffffffffffffffffffffffffffff1614610e62576040517f08c379a0000000000000000000000000000000000000000000000000000000008152600401610e5990611736565b60405180910390fd5b565b60008060009054906101000a900473ffffffffffffffffffffffffffffffffffffffff169050816000806101000a81548173ffffffffffffffffffffffffffffffffffffffff021916908373ffffffffffffffffffffffffffffffffffffffff1602179055508173ffffffffffffffffffffffffffffffffffffffff168173ffffffffffffffffffffffffffffffffffffffff167f8be0079c531659141344cd1fd0a4f28419497f9722a3daafe3b4186f6b6457e060405160405180910390a35050565b600080fd5b600073ffffffffffffffffffffffffffffffffffffffff82169050919050565b6000610f5882610f2d565b9050919050565b610f6881610f4d565b8114610f7357600080fd5b50565b600081359050610f8581610f5f565b92915050565b600060208284031215610fa157610fa0610f28565b5b6000610faf84828501610f76565b91505092915050565b6000819050919050565b610fcb81610fb8565b82525050565b6000602082019050610fe66000830184610fc2565b92915050565b610ff581610fb8565b811461100057600080fd5b50565b60008135905061101281610fec565b92915050565b6000806040838503121561102f5761102e610f28565b5b600061103d85828601610f76565b925050602061104e85828601611003565b9150509250929050565b60006020828403121561106e5761106d610f28565b5b600061107c84828501611003565b91505092915050565b61108e81610f4d565b82525050565b60006020820190506110a96000830184611085565b92915050565b6000819050919050565b60006110d46110cf6110ca84610f2d565b6110af565b610f2d565b9050919050565b60006110e6826110b9565b9050919050565b60006110f8826110db565b9050919050565b611108816110ed565b82525050565b600060208201905061112360008301846110ff565b92915050565b7f4e487b7100000000000000000000000000000000000000000000000000000000600052601160045260246000fd5b600061116382610fb8565b915061116e83610fb8565b925082820190508082111561118657611185611129565b5b92915050565b600082825260208201905092915050565b7f5374616b696e6720706572696f64206973206e6f74206f7665722e0000000000600082015250565b60006111d3601b8361118c565b91506111de8261119d565b602082019050919050565b60006020820190508181036000830152611202816111c6565b9050919050565b600061121482610fb8565b915061121f83610fb8565b925082820390508181111561123757611236611129565b5b92915050565b7f4d697373696e6720455243323020746f6b656e73206f6e20636f6e7472616374600082015250565b600061127360208361118c565b915061127e8261123d565b602082019050919050565b600060208201905081810360008301526112a281611266565b9050919050565b7f4d697373696e6720455243323020746f6b656e7320666f72207265776172642060008201527f6f6e20636f6e7472616374000000000000000000000000000000000000000000602082015250565b6000611305602b8361118c565b9150611310826112a9565b604082019050919050565b60006020820190508181036000830152611334816112f8565b9050919050565b60006040820190506113506000830185611085565b61135d6020830184610fc2565b9392505050565b60008115159050919050565b61137981611364565b811461138457600080fd5b50565b60008151905061139681611370565b92915050565b6000602082840312156113b2576113b1610f28565b5b60006113c084828501611387565b91505092915050565b7f52657472696576616c2076616c75652065786365656420617574686f72697a6560008201527f64206c696d69742e000000000000000000000000000000000000000000000000602082015250565b600061142560288361118c565b9150611430826113c9565b604082019050919050565b6000602082019050818103600083015261145481611418565b9050919050565b60006060820190506114706000830186611085565b61147d6020830185611085565b61148a6040830184610fc2565b949350505050565b600061149d82610fb8565b91506114a883610fb8565b92508282026114b681610fb8565b915082820484148315176114cd576114cc611129565b5b5092915050565b7f4e487b7100000000000000000000000000000000000000000000000000000000600052601260045260246000fd5b600061150e82610fb8565b915061151983610fb8565b925082611529576115286114d4565b5b828204905092915050565b7f4e6f7420656e6f75676820746f6b656e20746f2070617920322520726577617260008201527f642e000000000000000000000000000000000000000000000000000000000000602082015250565b600061159060228361118c565b915061159b82611534565b604082019050919050565b600060208201905081810360008301526115bf81611583565b9050919050565b7f4f776e61626c653a206e6577206f776e657220697320746865207a65726f206160008201527f6464726573730000000000000000000000000000000000000000000000000000602082015250565b600061162260268361118c565b915061162d826115c6565b604082019050919050565b6000602082019050818103600083015261165181611615565b9050919050565b7f4475726174696f6e2073686f756c64206265206174206c65617374203120776560008201527f656b2e0000000000000000000000000000000000000000000000000000000000602082015250565b60006116b460238361118c565b91506116bf82611658565b604082019050919050565b600060208201905081810360008301526116e3816116a7565b9050919050565b7f4f776e61626c653a2063616c6c6572206973206e6f7420746865206f776e6572600082015250565b600061172060208361118c565b915061172b826116ea565b602082019050919050565b6000602082019050818103600083015261174f81611713565b905091905056fea2646970667358221220de3f19ef34f5670b546fe950620dd9336b65b7e6c7079016cf892425c575e9f164736f6c63430008110033","opcodes":"PUSH1 0x80 PUSH1 0x40 MSTORE PUSH1 0x2 PUSH1 0x5 SSTORE PUSH1 0x0 PUSH1 0x6 SSTORE PUSH1 0x0 PUSH1 0x7 SSTORE PUSH3 0x24EA00 PUSH1 0x8 SSTORE CALLVALUE DUP1 ISZERO PUSH3 0x27 JUMPI PUSH1 0x0 DUP1 REVERT JUMPDEST POP PUSH1 0x40 MLOAD PUSH3 0x19CD CODESIZE SUB DUP1 PUSH3 0x19CD DUP4 CODECOPY DUP2 DUP2 ADD PUSH1 0x40 MSTORE DUP2 ADD SWAP1 PUSH3 0x4D SWAP2 SWAP1 PUSH3 0x1FF JUMP JUMPDEST PUSH3 0x6D PUSH3 0x61 PUSH3 0xB5 PUSH1 0x20 SHL PUSH1 0x20 SHR JUMP JUMPDEST PUSH3 0xBD PUSH1 0x20 SHL PUSH1 0x20 SHR JUMP JUMPDEST DUP1 PUSH1 0x1 PUSH1 0x0 PUSH2 0x100 EXP DUP2 SLOAD DUP2 PUSH20 0xFFFFFFFFFFFFFFFFFFFFFFFFFFFFFFFFFFFFFFFF MUL NOT AND SWAP1 DUP4 PUSH20 0xFFFFFFFFFFFFFFFFFFFFFFFFFFFFFFFFFFFFFFFF AND MUL OR SWAP1 SSTORE POP POP PUSH3 0x231 JUMP JUMPDEST PUSH1 0x0 CALLER SWAP1 POP SWAP1 JUMP JUMPDEST PUSH1 0x0 DUP1 PUSH1 0x0 SWAP1 SLOAD SWAP1 PUSH2 0x100 EXP SWAP1 DIV PUSH20 0xFFFFFFFFFFFFFFFFFFFFFFFFFFFFFFFFFFFFFFFF AND SWAP1 POP DUP2 PUSH1 0x0 DUP1 PUSH2 0x100 EXP DUP2 SLOAD DUP2 PUSH20 0xFFFFFFFFFFFFFFFFFFFFFFFFFFFFFFFFFFFFFFFF MUL NOT AND SWAP1 DUP4 PUSH20 0xFFFFFFFFFFFFFFFFFFFFFFFFFFFFFFFFFFFFFFFF AND MUL OR SWAP1 SSTORE POP DUP2 PUSH20 0xFFFFFFFFFFFFFFFFFFFFFFFFFFFFFFFFFFFFFFFF AND DUP2 PUSH20 0xFFFFFFFFFFFFFFFFFFFFFFFFFFFFFFFFFFFFFFFF AND PUSH32 0x8BE0079C531659141344CD1FD0A4F28419497F9722A3DAAFE3B4186F6B6457E0 PUSH1 0x40 MLOAD PUSH1 0x40 MLOAD DUP1 SWAP2 SUB SWAP1 LOG3 POP POP JUMP JUMPDEST PUSH1 0x0 DUP1 REVERT JUMPDEST PUSH1 0x0 PUSH20 0xFFFFFFFFFFFFFFFFFFFFFFFFFFFFFFFFFFFFFFFF DUP3 AND SWAP1 POP SWAP2 SWAP1 POP JUMP JUMPDEST PUSH1 0x0 PUSH3 0x1B3 DUP3 PUSH3 0x186 JUMP JUMPDEST SWAP1 POP SWAP2 SWAP1 POP JUMP JUMPDEST PUSH1 0x0 PUSH3 0x1C7 DUP3 PUSH3 0x1A6 JUMP JUMPDEST SWAP1 POP SWAP2 SWAP1 POP JUMP JUMPDEST PUSH3 0x1D9 DUP2 PUSH3 0x1BA JUMP JUMPDEST DUP2 EQ PUSH3 0x1E5 JUMPI PUSH1 0x0 DUP1 REVERT JUMPDEST POP JUMP JUMPDEST PUSH1 0x0 DUP2 MLOAD SWAP1 POP PUSH3 0x1F9 DUP2 PUSH3 0x1CE JUMP JUMPDEST SWAP3 SWAP2 POP POP JUMP JUMPDEST PUSH1 0x0 PUSH1 0x20 DUP3 DUP5 SUB SLT ISZERO PUSH3 0x218 JUMPI PUSH3 0x217 PUSH3 0x181 JUMP JUMPDEST JUMPDEST PUSH1 0x0 PUSH3 0x228 DUP5 DUP3 DUP6 ADD PUSH3 0x1E8 JUMP JUMPDEST SWAP2 POP POP SWAP3 SWAP2 POP POP JUMP JUMPDEST PUSH2 0x178C DUP1 PUSH3 0x241 PUSH1 0x0 CODECOPY PUSH1 0x0 RETURN INVALID PUSH1 0x80 PUSH1 0x40 MSTORE CALLVALUE DUP1 ISZERO PUSH2 0x10 JUMPI PUSH1 0x0 DUP1 REVERT JUMPDEST POP PUSH1 0x4 CALLDATASIZE LT PUSH2 0x100 JUMPI PUSH1 0x0 CALLDATALOAD PUSH1 0xE0 SHR DUP1 PUSH4 0x8DA5CB5B GT PUSH2 0x97 JUMPI DUP1 PUSH4 0xE90BFC4B GT PUSH2 0x66 JUMPI DUP1 PUSH4 0xE90BFC4B EQ PUSH2 0x263 JUMPI DUP1 PUSH4 0xF2FDE38B EQ PUSH2 0x281 JUMPI DUP1 PUSH4 0xF6BE71D1 EQ PUSH2 0x29D JUMPI DUP1 PUSH4 0xF959680B EQ PUSH2 0x2B9 JUMPI PUSH2 0x100 JUMP JUMPDEST DUP1 PUSH4 0x8DA5CB5B EQ PUSH2 0x1ED JUMPI DUP1 PUSH4 0xAD2E8C9B EQ PUSH2 0x20B JUMPI DUP1 PUSH4 0xB53B26A1 EQ PUSH2 0x229 JUMPI DUP1 PUSH4 0xB6B55F25 EQ PUSH2 0x247 JUMPI PUSH2 0x100 JUMP JUMPDEST DUP1 PUSH4 0x70A08231 GT PUSH2 0xD3 JUMPI DUP1 PUSH4 0x70A08231 EQ PUSH2 0x179 JUMPI DUP1 PUSH4 0x715018A6 EQ PUSH2 0x1A9 JUMPI DUP1 PUSH4 0x74DE4EC4 EQ PUSH2 0x1B3 JUMPI DUP1 PUSH4 0x817B1CD2 EQ PUSH2 0x1CF JUMPI PUSH2 0x100 JUMP JUMPDEST DUP1 PUSH4 0x2527753 EQ PUSH2 0x105 JUMPI DUP1 PUSH4 0x245C7C60 EQ PUSH2 0x135 JUMPI DUP1 PUSH4 0x3CCFD60B EQ PUSH2 0x153 JUMPI DUP1 PUSH4 0x424D4006 EQ PUSH2 0x15D JUMPI JUMPDEST PUSH1 0x0 DUP1 REVERT JUMPDEST PUSH2 0x11F PUSH1 0x4 DUP1 CALLDATASIZE SUB DUP2 ADD SWAP1 PUSH2 0x11A SWAP2 SWAP1 PUSH2 0xF8B JUMP JUMPDEST PUSH2 0x2D7 JUMP JUMPDEST PUSH1 0x40 MLOAD PUSH2 0x12C SWAP2 SWAP1 PUSH2 0xFD1 JUMP JUMPDEST PUSH1 0x40 MLOAD DUP1 SWAP2 SUB SWAP1 RETURN JUMPDEST PUSH2 0x13D PUSH2 0x320 JUMP JUMPDEST PUSH1 0x40 MLOAD PUSH2 0x14A SWAP2 SWAP1 PUSH2 0xFD1 JUMP JUMPDEST PUSH1 0x40 MLOAD DUP1 SWAP2 SUB SWAP1 RETURN JUMPDEST PUSH2 0x15B PUSH2 0x326 JUMP JUMPDEST STOP JUMPDEST PUSH2 0x177 PUSH1 0x4 DUP1 CALLDATASIZE SUB DUP2 ADD SWAP1 PUSH2 0x172 SWAP2 SWAP1 PUSH2 0x1018 JUMP JUMPDEST PUSH2 0x628 JUMP JUMPDEST STOP JUMPDEST PUSH2 0x193 PUSH1 0x4 DUP1 CALLDATASIZE SUB DUP2 ADD SWAP1 PUSH2 0x18E SWAP2 SWAP1 PUSH2 0xF8B JUMP JUMPDEST PUSH2 0x6B8 JUMP JUMPDEST PUSH1 0x40 MLOAD PUSH2 0x1A0 SWAP2 SWAP1 PUSH2 0xFD1 JUMP JUMPDEST PUSH1 0x40 MLOAD DUP1 SWAP2 SUB SWAP1 RETURN JUMPDEST PUSH2 0x1B1 PUSH2 0x701 JUMP JUMPDEST STOP JUMPDEST PUSH2 0x1CD PUSH1 0x4 DUP1 CALLDATASIZE SUB DUP2 ADD SWAP1 PUSH2 0x1C8 SWAP2 SWAP1 PUSH2 0x1058 JUMP JUMPDEST PUSH2 0x715 JUMP JUMPDEST STOP JUMPDEST PUSH2 0x1D7 PUSH2 0x93B JUMP JUMPDEST PUSH1 0x40 MLOAD PUSH2 0x1E4 SWAP2 SWAP1 PUSH2 0xFD1 JUMP JUMPDEST PUSH1 0x40 MLOAD DUP1 SWAP2 SUB SWAP1 RETURN JUMPDEST PUSH2 0x1F5 PUSH2 0x941 JUMP JUMPDEST PUSH1 0x40 MLOAD PUSH2 0x202 SWAP2 SWAP1 PUSH2 0x1094 JUMP JUMPDEST PUSH1 0x40 MLOAD DUP1 SWAP2 SUB SWAP1 RETURN JUMPDEST PUSH2 0x213 PUSH2 0x96A JUMP JUMPDEST PUSH1 0x40 MLOAD PUSH2 0x220 SWAP2 SWAP1 PUSH2 0xFD1 JUMP JUMPDEST PUSH1 0x40 MLOAD DUP1 SWAP2 SUB SWAP1 RETURN JUMPDEST PUSH2 0x231 PUSH2 0x974 JUMP JUMPDEST PUSH1 0x40 MLOAD PUSH2 0x23E SWAP2 SWAP1 PUSH2 0xFD1 JUMP JUMPDEST PUSH1 0x40 MLOAD DUP1 SWAP2 SUB SWAP1 RETURN JUMPDEST PUSH2 0x261 PUSH1 0x4 DUP1 CALLDATASIZE SUB DUP2 ADD SWAP1 PUSH2 0x25C SWAP2 SWAP1 PUSH2 0x1058 JUMP JUMPDEST PUSH2 0x97A JUMP JUMPDEST STOP JUMPDEST PUSH2 0x26B PUSH2 0xC15 JUMP JUMPDEST PUSH1 0x40 MLOAD PUSH2 0x278 SWAP2 SWAP1 PUSH2 0x110E JUMP JUMPDEST PUSH1 0x40 MLOAD DUP1 SWAP2 SUB SWAP1 RETURN JUMPDEST PUSH2 0x29B PUSH1 0x4 DUP1 CALLDATASIZE SUB DUP2 ADD SWAP1 PUSH2 0x296 SWAP2 SWAP1 PUSH2 0xF8B JUMP JUMPDEST PUSH2 0xC3B JUMP JUMPDEST STOP JUMPDEST PUSH2 0x2B7 PUSH1 0x4 DUP1 CALLDATASIZE SUB DUP2 ADD SWAP1 PUSH2 0x2B2 SWAP2 SWAP1 PUSH2 0x1058 JUMP JUMPDEST PUSH2 0xCBE JUMP JUMPDEST STOP JUMPDEST PUSH2 0x2C1 PUSH2 0xD4D JUMP JUMPDEST PUSH1 0x40 MLOAD PUSH2 0x2CE SWAP2 SWAP1 PUSH2 0xFD1 JUMP JUMPDEST PUSH1 0x40 MLOAD DUP1 SWAP2 SUB SWAP1 RETURN JUMPDEST PUSH1 0x0 PUSH1 0x2 PUSH1 0x0 DUP4 PUSH20 0xFFFFFFFFFFFFFFFFFFFFFFFFFFFFFFFFFFFFFFFF AND PUSH20 0xFFFFFFFFFFFFFFFFFFFFFFFFFFFFFFFFFFFFFFFF AND DUP2 MSTORE PUSH1 0x20 ADD SWAP1 DUP2 MSTORE PUSH1 0x20 ADD PUSH1 0x0 KECCAK256 SLOAD SWAP1 POP SWAP2 SWAP1 POP JUMP JUMPDEST PUSH1 0x8 SLOAD DUP2 JUMP JUMPDEST TIMESTAMP PUSH1 0x8 SLOAD PUSH1 0x2 PUSH1 0x0 PUSH2 0x336 PUSH2 0xD53 JUMP JUMPDEST PUSH20 0xFFFFFFFFFFFFFFFFFFFFFFFFFFFFFFFFFFFFFFFF AND PUSH20 0xFFFFFFFFFFFFFFFFFFFFFFFFFFFFFFFFFFFFFFFF AND DUP2 MSTORE PUSH1 0x20 ADD SWAP1 DUP2 MSTORE PUSH1 0x20 ADD PUSH1 0x0 KECCAK256 SLOAD PUSH2 0x37B SWAP2 SWAP1 PUSH2 0x1158 JUMP JUMPDEST GT ISZERO PUSH2 0x3BC JUMPI PUSH1 0x40 MLOAD PUSH32 0x8C379A000000000000000000000000000000000000000000000000000000000 DUP2 MSTORE PUSH1 0x4 ADD PUSH2 0x3B3 SWAP1 PUSH2 0x11E9 JUMP JUMPDEST PUSH1 0x40 MLOAD DUP1 SWAP2 SUB SWAP1 REVERT JUMPDEST PUSH1 0x0 PUSH1 0x3 PUSH1 0x0 PUSH2 0x3CA PUSH2 0xD53 JUMP JUMPDEST PUSH20 0xFFFFFFFFFFFFFFFFFFFFFFFFFFFFFFFFFFFFFFFF AND PUSH20 0xFFFFFFFFFFFFFFFFFFFFFFFFFFFFFFFFFFFFFFFF AND DUP2 MSTORE PUSH1 0x20 ADD SWAP1 DUP2 MSTORE PUSH1 0x20 ADD PUSH1 0x0 KECCAK256 SLOAD SWAP1 POP PUSH1 0x0 PUSH1 0x3 PUSH1 0x0 PUSH2 0x415 PUSH2 0xD53 JUMP JUMPDEST PUSH20 0xFFFFFFFFFFFFFFFFFFFFFFFFFFFFFFFFFFFFFFFF AND PUSH20 0xFFFFFFFFFFFFFFFFFFFFFFFFFFFFFFFFFFFFFFFF AND DUP2 MSTORE PUSH1 0x20 ADD SWAP1 DUP2 MSTORE PUSH1 0x20 ADD PUSH1 0x0 KECCAK256 DUP2 SWAP1 SSTORE POP PUSH1 0x0 PUSH2 0x466 DUP3 PUSH2 0x461 PUSH2 0xD53 JUMP JUMPDEST PUSH2 0xD5B JUMP JUMPDEST SWAP1 POP DUP2 PUSH1 0x7 PUSH1 0x0 DUP3 DUP3 SLOAD PUSH2 0x47A SWAP2 SWAP1 PUSH2 0x1209 JUMP JUMPDEST SWAP3 POP POP DUP2 SWAP1 SSTORE POP PUSH1 0x0 PUSH1 0x7 SLOAD LT ISZERO PUSH2 0x4C7 JUMPI PUSH1 0x40 MLOAD PUSH32 0x8C379A000000000000000000000000000000000000000000000000000000000 DUP2 MSTORE PUSH1 0x4 ADD PUSH2 0x4BE SWAP1 PUSH2 0x1289 JUMP JUMPDEST PUSH1 0x40 MLOAD DUP1 SWAP2 SUB SWAP1 REVERT JUMPDEST DUP1 PUSH1 0x6 PUSH1 0x0 DUP3 DUP3 SLOAD PUSH2 0x4D9 SWAP2 SWAP1 PUSH2 0x1209 JUMP JUMPDEST SWAP3 POP POP DUP2 SWAP1 SSTORE POP PUSH1 0x0 PUSH1 0x6 SLOAD LT ISZERO PUSH2 0x526 JUMPI PUSH1 0x40 MLOAD PUSH32 0x8C379A000000000000000000000000000000000000000000000000000000000 DUP2 MSTORE PUSH1 0x4 ADD PUSH2 0x51D SWAP1 PUSH2 0x131B JUMP JUMPDEST PUSH1 0x40 MLOAD DUP1 SWAP2 SUB SWAP1 REVERT JUMPDEST PUSH1 0x1 PUSH1 0x0 SWAP1 SLOAD SWAP1 PUSH2 0x100 EXP SWAP1 DIV PUSH20 0xFFFFFFFFFFFFFFFFFFFFFFFFFFFFFFFFFFFFFFFF AND PUSH20 0xFFFFFFFFFFFFFFFFFFFFFFFFFFFFFFFFFFFFFFFF AND PUSH4 0xA9059CBB PUSH2 0x56C PUSH2 0xD53 JUMP JUMPDEST DUP4 DUP6 PUSH2 0x578 SWAP2 SWAP1 PUSH2 0x1158 JUMP JUMPDEST PUSH1 0x40 MLOAD DUP4 PUSH4 0xFFFFFFFF AND PUSH1 0xE0 SHL DUP2 MSTORE PUSH1 0x4 ADD PUSH2 0x595 SWAP3 SWAP2 SWAP1 PUSH2 0x133B JUMP JUMPDEST PUSH1 0x20 PUSH1 0x40 MLOAD DUP1 DUP4 SUB DUP2 PUSH1 0x0 DUP8 GAS CALL ISZERO DUP1 ISZERO PUSH2 0x5B4 JUMPI RETURNDATASIZE PUSH1 0x0 DUP1 RETURNDATACOPY RETURNDATASIZE PUSH1 0x0 REVERT JUMPDEST POP POP POP POP PUSH1 0x40 MLOAD RETURNDATASIZE PUSH1 0x1F NOT PUSH1 0x1F DUP3 ADD AND DUP3 ADD DUP1 PUSH1 0x40 MSTORE POP DUP2 ADD SWAP1 PUSH2 0x5D8 SWAP2 SWAP1 PUSH2 0x139C JUMP JUMPDEST POP PUSH32 0x884EDAD9CE6FA2440D8A54CC123490EB96D2768479D49FF9C7366125A9424364 PUSH2 0x602 PUSH2 0xD53 JUMP JUMPDEST DUP3 DUP5 PUSH2 0x60E SWAP2 SWAP1 PUSH2 0x1158 JUMP JUMPDEST PUSH1 0x40 MLOAD PUSH2 0x61C SWAP3 SWAP2 SWAP1 PUSH2 0x133B JUMP JUMPDEST PUSH1 0x40 MLOAD DUP1 SWAP2 SUB SWAP1 LOG1 POP POP JUMP JUMPDEST PUSH2 0x630 PUSH2 0xDE6 JUMP JUMPDEST DUP1 PUSH1 0x4 PUSH1 0x0 DUP5 PUSH20 0xFFFFFFFFFFFFFFFFFFFFFFFFFFFFFFFFFFFFFFFF AND PUSH20 0xFFFFFFFFFFFFFFFFFFFFFFFFFFFFFFFFFFFFFFFF AND DUP2 MSTORE PUSH1 0x20 ADD SWAP1 DUP2 MSTORE PUSH1 0x20 ADD PUSH1 0x0 KECCAK256 DUP2 SWAP1 SSTORE POP PUSH32 0xB7A9A9243F1B40C58DCA321D1BE1DD151A31CC9F61B7160781EBFE62AC99415A PUSH2 0x69D PUSH2 0xD53 JUMP JUMPDEST DUP3 PUSH1 0x40 MLOAD PUSH2 0x6AC SWAP3 SWAP2 SWAP1 PUSH2 0x133B JUMP JUMPDEST PUSH1 0x40 MLOAD DUP1 SWAP2 SUB SWAP1 LOG1 POP POP JUMP JUMPDEST PUSH1 0x0 PUSH1 0x3 PUSH1 0x0 DUP4 PUSH20 0xFFFFFFFFFFFFFFFFFFFFFFFFFFFFFFFFFFFFFFFF AND PUSH20 0xFFFFFFFFFFFFFFFFFFFFFFFFFFFFFFFFFFFFFFFF AND DUP2 MSTORE PUSH1 0x20 ADD SWAP1 DUP2 MSTORE PUSH1 0x20 ADD PUSH1 0x0 KECCAK256 SLOAD SWAP1 POP SWAP2 SWAP1 POP JUMP JUMPDEST PUSH2 0x709 PUSH2 0xDE6 JUMP JUMPDEST PUSH2 0x713 PUSH1 0x0 PUSH2 0xE64 JUMP JUMPDEST JUMP JUMPDEST DUP1 PUSH1 0x4 PUSH1 0x0 PUSH2 0x722 PUSH2 0xD53 JUMP JUMPDEST PUSH20 0xFFFFFFFFFFFFFFFFFFFFFFFFFFFFFFFFFFFFFFFF AND PUSH20 0xFFFFFFFFFFFFFFFFFFFFFFFFFFFFFFFFFFFFFFFF AND DUP2 MSTORE PUSH1 0x20 ADD SWAP1 DUP2 MSTORE PUSH1 0x20 ADD PUSH1 0x0 KECCAK256 SLOAD LT ISZERO PUSH2 0x79E JUMPI PUSH1 0x40 MLOAD PUSH32 0x8C379A000000000000000000000000000000000000000000000000000000000 DUP2 MSTORE PUSH1 0x4 ADD PUSH2 0x795 SWAP1 PUSH2 0x143B JUMP JUMPDEST PUSH1 0x40 MLOAD DUP1 SWAP2 SUB SWAP1 REVERT JUMPDEST DUP1 PUSH1 0x4 PUSH1 0x0 PUSH2 0x7AB PUSH2 0xD53 JUMP JUMPDEST PUSH20 0xFFFFFFFFFFFFFFFFFFFFFFFFFFFFFFFFFFFFFFFF AND PUSH20 0xFFFFFFFFFFFFFFFFFFFFFFFFFFFFFFFFFFFFFFFF AND DUP2 MSTORE PUSH1 0x20 ADD SWAP1 DUP2 MSTORE PUSH1 0x20 ADD PUSH1 0x0 KECCAK256 SLOAD PUSH2 0x7F0 SWAP2 SWAP1 PUSH2 0x1209 JUMP JUMPDEST PUSH1 0x4 PUSH1 0x0 PUSH2 0x7FC PUSH2 0xD53 JUMP JUMPDEST PUSH20 0xFFFFFFFFFFFFFFFFFFFFFFFFFFFFFFFFFFFFFFFF AND PUSH20 0xFFFFFFFFFFFFFFFFFFFFFFFFFFFFFFFFFFFFFFFF AND DUP2 MSTORE PUSH1 0x20 ADD SWAP1 DUP2 MSTORE PUSH1 0x20 ADD PUSH1 0x0 KECCAK256 DUP2 SWAP1 SSTORE POP DUP1 PUSH1 0x6 SLOAD PUSH2 0x848 SWAP2 SWAP1 PUSH2 0x1158 JUMP JUMPDEST PUSH1 0x6 DUP2 SWAP1 SSTORE POP PUSH1 0x1 PUSH1 0x0 SWAP1 SLOAD SWAP1 PUSH2 0x100 EXP SWAP1 DIV PUSH20 0xFFFFFFFFFFFFFFFFFFFFFFFFFFFFFFFFFFFFFFFF AND PUSH20 0xFFFFFFFFFFFFFFFFFFFFFFFFFFFFFFFFFFFFFFFF AND PUSH4 0x23B872DD PUSH2 0x894 PUSH2 0xD53 JUMP JUMPDEST ADDRESS DUP5 PUSH1 0x40 MLOAD DUP5 PUSH4 0xFFFFFFFF AND PUSH1 0xE0 SHL DUP2 MSTORE PUSH1 0x4 ADD PUSH2 0x8B4 SWAP4 SWAP3 SWAP2 SWAP1 PUSH2 0x145B JUMP JUMPDEST PUSH1 0x20 PUSH1 0x40 MLOAD DUP1 DUP4 SUB DUP2 PUSH1 0x0 DUP8 GAS CALL ISZERO DUP1 ISZERO PUSH2 0x8D3 JUMPI RETURNDATASIZE PUSH1 0x0 DUP1 RETURNDATACOPY RETURNDATASIZE PUSH1 0x0 REVERT JUMPDEST POP POP POP POP PUSH1 0x40 MLOAD RETURNDATASIZE PUSH1 0x1F NOT PUSH1 0x1F DUP3 ADD AND DUP3 ADD DUP1 PUSH1 0x40 MSTORE POP DUP2 ADD SWAP1 PUSH2 0x8F7 SWAP2 SWAP1 PUSH2 0x139C JUMP JUMPDEST POP PUSH32 0x9F15A78649BD76613C4A49CA8A67AE948862A0EEE791CA3D0380853F9AFA624F PUSH2 0x921 PUSH2 0xD53 JUMP JUMPDEST DUP3 PUSH1 0x40 MLOAD PUSH2 0x930 SWAP3 SWAP2 SWAP1 PUSH2 0x133B JUMP JUMPDEST PUSH1 0x40 MLOAD DUP1 SWAP2 SUB SWAP1 LOG1 POP JUMP JUMPDEST PUSH1 0x7 SLOAD DUP2 JUMP JUMPDEST PUSH1 0x0 DUP1 PUSH1 0x0 SWAP1 SLOAD SWAP1 PUSH2 0x100 EXP SWAP1 DIV PUSH20 0xFFFFFFFFFFFFFFFFFFFFFFFFFFFFFFFFFFFFFFFF AND SWAP1 POP SWAP1 JUMP JUMPDEST PUSH1 0x0 PUSH1 0x8 SLOAD SWAP1 POP SWAP1 JUMP JUMPDEST PUSH1 0x5 SLOAD DUP2 JUMP JUMPDEST PUSH1 0x0 PUSH2 0x9D3 PUSH1 0x3 PUSH1 0x0 PUSH2 0x98B PUSH2 0xD53 JUMP JUMPDEST PUSH20 0xFFFFFFFFFFFFFFFFFFFFFFFFFFFFFFFFFFFFFFFF AND PUSH20 0xFFFFFFFFFFFFFFFFFFFFFFFFFFFFFFFFFFFFFFFF AND DUP2 MSTORE PUSH1 0x20 ADD SWAP1 DUP2 MSTORE PUSH1 0x20 ADD PUSH1 0x0 KECCAK256 SLOAD PUSH2 0x9CE PUSH2 0xD53 JUMP JUMPDEST PUSH2 0xD5B JUMP JUMPDEST SWAP1 POP PUSH1 0x64 PUSH1 0x5 SLOAD PUSH1 0x64 PUSH2 0x9E6 SWAP2 SWAP1 PUSH2 0x1158 JUMP JUMPDEST DUP3 DUP5 PUSH1 0x7 SLOAD PUSH2 0x9F5 SWAP2 SWAP1 PUSH2 0x1158 JUMP JUMPDEST PUSH2 0x9FF SWAP2 SWAP1 PUSH2 0x1158 JUMP JUMPDEST PUSH2 0xA09 SWAP2 SWAP1 PUSH2 0x1492 JUMP JUMPDEST PUSH2 0xA13 SWAP2 SWAP1 PUSH2 0x1503 JUMP JUMPDEST PUSH1 0x6 SLOAD LT ISZERO PUSH2 0xA57 JUMPI PUSH1 0x40 MLOAD PUSH32 0x8C379A000000000000000000000000000000000000000000000000000000000 DUP2 MSTORE PUSH1 0x4 ADD PUSH2 0xA4E SWAP1 PUSH2 0x15A6 JUMP JUMPDEST PUSH1 0x40 MLOAD DUP1 SWAP2 SUB SWAP1 REVERT JUMPDEST DUP1 DUP3 PUSH2 0xA63 SWAP2 SWAP1 PUSH2 0x1158 JUMP JUMPDEST PUSH1 0x7 PUSH1 0x0 DUP3 DUP3 SLOAD PUSH2 0xA74 SWAP2 SWAP1 PUSH2 0x1158 JUMP JUMPDEST SWAP3 POP POP DUP2 SWAP1 SSTORE POP DUP1 DUP3 PUSH2 0xA87 SWAP2 SWAP1 PUSH2 0x1158 JUMP JUMPDEST PUSH1 0x3 PUSH1 0x0 PUSH2 0xA93 PUSH2 0xD53 JUMP JUMPDEST PUSH20 0xFFFFFFFFFFFFFFFFFFFFFFFFFFFFFFFFFFFFFFFF AND PUSH20 0xFFFFFFFFFFFFFFFFFFFFFFFFFFFFFFFFFFFFFFFF AND DUP2 MSTORE PUSH1 0x20 ADD SWAP1 DUP2 MSTORE PUSH1 0x20 ADD PUSH1 0x0 KECCAK256 PUSH1 0x0 DUP3 DUP3 SLOAD PUSH2 0xADC SWAP2 SWAP1 PUSH2 0x1158 JUMP JUMPDEST SWAP3 POP POP DUP2 SWAP1 SSTORE POP TIMESTAMP PUSH1 0x2 PUSH1 0x0 PUSH2 0xAF0 PUSH2 0xD53 JUMP JUMPDEST PUSH20 0xFFFFFFFFFFFFFFFFFFFFFFFFFFFFFFFFFFFFFFFF AND PUSH20 0xFFFFFFFFFFFFFFFFFFFFFFFFFFFFFFFFFFFFFFFF AND DUP2 MSTORE PUSH1 0x20 ADD SWAP1 DUP2 MSTORE PUSH1 0x20 ADD PUSH1 0x0 KECCAK256 DUP2 SWAP1 SSTORE POP PUSH1 0x1 PUSH1 0x0 SWAP1 SLOAD SWAP1 PUSH2 0x100 EXP SWAP1 DIV PUSH20 0xFFFFFFFFFFFFFFFFFFFFFFFFFFFFFFFFFFFFFFFF AND PUSH20 0xFFFFFFFFFFFFFFFFFFFFFFFFFFFFFFFFFFFFFFFF AND PUSH4 0x23B872DD ORIGIN ADDRESS DUP6 PUSH1 0x40 MLOAD DUP5 PUSH4 0xFFFFFFFF AND PUSH1 0xE0 SHL DUP2 MSTORE PUSH1 0x4 ADD PUSH2 0xB8D SWAP4 SWAP3 SWAP2 SWAP1 PUSH2 0x145B JUMP JUMPDEST PUSH1 0x20 PUSH1 0x40 MLOAD DUP1 DUP4 SUB DUP2 PUSH1 0x0 DUP8 GAS CALL ISZERO DUP1 ISZERO PUSH2 0xBAC JUMPI RETURNDATASIZE PUSH1 0x0 DUP1 RETURNDATACOPY RETURNDATASIZE PUSH1 0x0 REVERT JUMPDEST POP POP POP POP PUSH1 0x40 MLOAD RETURNDATASIZE PUSH1 0x1F NOT PUSH1 0x1F DUP3 ADD AND DUP3 ADD DUP1 PUSH1 0x40 MSTORE POP DUP2 ADD SWAP1 PUSH2 0xBD0 SWAP2 SWAP1 PUSH2 0x139C JUMP JUMPDEST POP PUSH32 0xE1FFFCC4923D04B559F4D29A8BFC6CDA04EB5B0D3C460751C2402C5C5CC9109C PUSH2 0xBFA PUSH2 0xD53 JUMP JUMPDEST DUP4 PUSH1 0x40 MLOAD PUSH2 0xC09 SWAP3 SWAP2 SWAP1 PUSH2 0x133B JUMP JUMPDEST PUSH1 0x40 MLOAD DUP1 SWAP2 SUB SWAP1 LOG1 POP POP JUMP JUMPDEST PUSH1 0x1 PUSH1 0x0 SWAP1 SLOAD SWAP1 PUSH2 0x100 EXP SWAP1 DIV PUSH20 0xFFFFFFFFFFFFFFFFFFFFFFFFFFFFFFFFFFFFFFFF AND DUP2 JUMP JUMPDEST PUSH2 0xC43 PUSH2 0xDE6 JUMP JUMPDEST PUSH1 0x0 PUSH20 0xFFFFFFFFFFFFFFFFFFFFFFFFFFFFFFFFFFFFFFFF AND DUP2 PUSH20 0xFFFFFFFFFFFFFFFFFFFFFFFFFFFFFFFFFFFFFFFF AND SUB PUSH2 0xCB2 JUMPI PUSH1 0x40 MLOAD PUSH32 0x8C379A000000000000000000000000000000000000000000000000000000000 DUP2 MSTORE PUSH1 0x4 ADD PUSH2 0xCA9 SWAP1 PUSH2 0x1638 JUMP JUMPDEST PUSH1 0x40 MLOAD DUP1 SWAP2 SUB SWAP1 REVERT JUMPDEST PUSH2 0xCBB DUP2 PUSH2 0xE64 JUMP JUMPDEST POP JUMP JUMPDEST PUSH2 0xCC6 PUSH2 0xDE6 JUMP JUMPDEST PUSH3 0x93A80 DUP2 LT ISZERO PUSH2 0xD0C JUMPI PUSH1 0x40 MLOAD PUSH32 0x8C379A000000000000000000000000000000000000000000000000000000000 DUP2 MSTORE PUSH1 0x4 ADD PUSH2 0xD03 SWAP1 PUSH2 0x16CA JUMP JUMPDEST PUSH1 0x40 MLOAD DUP1 SWAP2 SUB SWAP1 REVERT JUMPDEST DUP1 PUSH1 0x8 DUP2 SWAP1 SSTORE POP PUSH32 0xDA04197EFF7312B09391AC91A9ABD15F1C06BC64FA29883C65945FBF36EE8B79 DUP2 PUSH1 0x40 MLOAD PUSH2 0xD42 SWAP2 SWAP1 PUSH2 0xFD1 JUMP JUMPDEST PUSH1 0x40 MLOAD DUP1 SWAP2 SUB SWAP1 LOG1 POP JUMP JUMPDEST PUSH1 0x6 SLOAD DUP2 JUMP JUMPDEST PUSH1 0x0 CALLER SWAP1 POP SWAP1 JUMP JUMPDEST PUSH1 0x0 DUP1 PUSH1 0x2 PUSH1 0x0 DUP5 PUSH20 0xFFFFFFFFFFFFFFFFFFFFFFFFFFFFFFFFFFFFFFFF AND PUSH20 0xFFFFFFFFFFFFFFFFFFFFFFFFFFFFFFFFFFFFFFFF AND DUP2 MSTORE PUSH1 0x20 ADD SWAP1 DUP2 MSTORE PUSH1 0x20 ADD PUSH1 0x0 KECCAK256 SLOAD TIMESTAMP PUSH2 0xDA9 SWAP2 SWAP1 PUSH2 0x1209 JUMP JUMPDEST SWAP1 POP PUSH1 0x64 PUSH1 0x8 SLOAD PUSH2 0xDBA SWAP2 SWAP1 PUSH2 0x1492 JUMP JUMPDEST DUP5 PUSH1 0x5 SLOAD DUP4 PUSH2 0xDC9 SWAP2 SWAP1 PUSH2 0x1492 JUMP JUMPDEST PUSH2 0xDD3 SWAP2 SWAP1 PUSH2 0x1492 JUMP JUMPDEST PUSH2 0xDDD SWAP2 SWAP1 PUSH2 0x1503 JUMP JUMPDEST SWAP2 POP POP SWAP3 SWAP2 POP POP JUMP JUMPDEST PUSH2 0xDEE PUSH2 0xD53 JUMP JUMPDEST PUSH20 0xFFFFFFFFFFFFFFFFFFFFFFFFFFFFFFFFFFFFFFFF AND PUSH2 0xE0C PUSH2 0x941 JUMP JUMPDEST PUSH20 0xFFFFFFFFFFFFFFFFFFFFFFFFFFFFFFFFFFFFFFFF AND EQ PUSH2 0xE62 JUMPI PUSH1 0x40 MLOAD PUSH32 0x8C379A000000000000000000000000000000000000000000000000000000000 DUP2 MSTORE PUSH1 0x4 ADD PUSH2 0xE59 SWAP1 PUSH2 0x1736 JUMP JUMPDEST PUSH1 0x40 MLOAD DUP1 SWAP2 SUB SWAP1 REVERT JUMPDEST JUMP JUMPDEST PUSH1 0x0 DUP1 PUSH1 0x0 SWAP1 SLOAD SWAP1 PUSH2 0x100 EXP SWAP1 DIV PUSH20 0xFFFFFFFFFFFFFFFFFFFFFFFFFFFFFFFFFFFFFFFF AND SWAP1 POP DUP2 PUSH1 0x0 DUP1 PUSH2 0x100 EXP DUP2 SLOAD DUP2 PUSH20 0xFFFFFFFFFFFFFFFFFFFFFFFFFFFFFFFFFFFFFFFF MUL NOT AND SWAP1 DUP4 PUSH20 0xFFFFFFFFFFFFFFFFFFFFFFFFFFFFFFFFFFFFFFFF AND MUL OR SWAP1 SSTORE POP DUP2 PUSH20 0xFFFFFFFFFFFFFFFFFFFFFFFFFFFFFFFFFFFFFFFF AND DUP2 PUSH20 0xFFFFFFFFFFFFFFFFFFFFFFFFFFFFFFFFFFFFFFFF AND PUSH32 0x8BE0079C531659141344CD1FD0A4F28419497F9722A3DAAFE3B4186F6B6457E0 PUSH1 0x40 MLOAD PUSH1 0x40 MLOAD DUP1 SWAP2 SUB SWAP1 LOG3 POP POP JUMP JUMPDEST PUSH1 0x0 DUP1 REVERT JUMPDEST PUSH1 0x0 PUSH20 0xFFFFFFFFFFFFFFFFFFFFFFFFFFFFFFFFFFFFFFFF DUP3 AND SWAP1 POP SWAP2 SWAP1 POP JUMP JUMPDEST PUSH1 0x0 PUSH2 0xF58 DUP3 PUSH2 0xF2D JUMP JUMPDEST SWAP1 POP SWAP2 SWAP1 POP JUMP JUMPDEST PUSH2 0xF68 DUP2 PUSH2 0xF4D JUMP JUMPDEST DUP2 EQ PUSH2 0xF73 JUMPI PUSH1 0x0 DUP1 REVERT JUMPDEST POP JUMP JUMPDEST PUSH1 0x0 DUP2 CALLDATALOAD SWAP1 POP PUSH2 0xF85 DUP2 PUSH2 0xF5F JUMP JUMPDEST SWAP3 SWAP2 POP POP JUMP JUMPDEST PUSH1 0x0 PUSH1 0x20 DUP3 DUP5 SUB SLT ISZERO PUSH2 0xFA1 JUMPI PUSH2 0xFA0 PUSH2 0xF28 JUMP JUMPDEST JUMPDEST PUSH1 0x0 PUSH2 0xFAF DUP5 DUP3 DUP6 ADD PUSH2 0xF76 JUMP JUMPDEST SWAP2 POP POP SWAP3 SWAP2 POP POP JUMP JUMPDEST PUSH1 0x0 DUP2 SWAP1 POP SWAP2 SWAP1 POP JUMP JUMPDEST PUSH2 0xFCB DUP2 PUSH2 0xFB8 JUMP JUMPDEST DUP3 MSTORE POP POP JUMP JUMPDEST PUSH1 0x0 PUSH1 0x20 DUP3 ADD SWAP1 POP PUSH2 0xFE6 PUSH1 0x0 DUP4 ADD DUP5 PUSH2 0xFC2 JUMP JUMPDEST SWAP3 SWAP2 POP POP JUMP JUMPDEST PUSH2 0xFF5 DUP2 PUSH2 0xFB8 JUMP JUMPDEST DUP2 EQ PUSH2 0x1000 JUMPI PUSH1 0x0 DUP1 REVERT JUMPDEST POP JUMP JUMPDEST PUSH1 0x0 DUP2 CALLDATALOAD SWAP1 POP PUSH2 0x1012 DUP2 PUSH2 0xFEC JUMP JUMPDEST SWAP3 SWAP2 POP POP JUMP JUMPDEST PUSH1 0x0 DUP1 PUSH1 0x40 DUP4 DUP6 SUB SLT ISZERO PUSH2 0x102F JUMPI PUSH2 0x102E PUSH2 0xF28 JUMP JUMPDEST JUMPDEST PUSH1 0x0 PUSH2 0x103D DUP6 DUP3 DUP7 ADD PUSH2 0xF76 JUMP JUMPDEST SWAP3 POP POP PUSH1 0x20 PUSH2 0x104E DUP6 DUP3 DUP7 ADD PUSH2 0x1003 JUMP JUMPDEST SWAP2 POP POP SWAP3 POP SWAP3 SWAP1 POP JUMP JUMPDEST PUSH1 0x0 PUSH1 0x20 DUP3 DUP5 SUB SLT ISZERO PUSH2 0x106E JUMPI PUSH2 0x106D PUSH2 0xF28 JUMP JUMPDEST JUMPDEST PUSH1 0x0 PUSH2 0x107C DUP5 DUP3 DUP6 ADD PUSH2 0x1003 JUMP JUMPDEST SWAP2 POP POP SWAP3 SWAP2 POP POP JUMP JUMPDEST PUSH2 0x108E DUP2 PUSH2 0xF4D JUMP JUMPDEST DUP3 MSTORE POP POP JUMP JUMPDEST PUSH1 0x0 PUSH1 0x20 DUP3 ADD SWAP1 POP PUSH2 0x10A9 PUSH1 0x0 DUP4 ADD DUP5 PUSH2 0x1085 JUMP JUMPDEST SWAP3 SWAP2 POP POP JUMP JUMPDEST PUSH1 0x0 DUP2 SWAP1 POP SWAP2 SWAP1 POP JUMP JUMPDEST PUSH1 0x0 PUSH2 0x10D4 PUSH2 0x10CF PUSH2 0x10CA DUP5 PUSH2 0xF2D JUMP JUMPDEST PUSH2 0x10AF JUMP JUMPDEST PUSH2 0xF2D JUMP JUMPDEST SWAP1 POP SWAP2 SWAP1 POP JUMP JUMPDEST PUSH1 0x0 PUSH2 0x10E6 DUP3 PUSH2 0x10B9 JUMP JUMPDEST SWAP1 POP SWAP2 SWAP1 POP JUMP JUMPDEST PUSH1 0x0 PUSH2 0x10F8 DUP3 PUSH2 0x10DB JUMP JUMPDEST SWAP1 POP SWAP2 SWAP1 POP JUMP JUMPDEST PUSH2 0x1108 DUP2 PUSH2 0x10ED JUMP JUMPDEST DUP3 MSTORE POP POP JUMP JUMPDEST PUSH1 0x0 PUSH1 0x20 DUP3 ADD SWAP1 POP PUSH2 0x1123 PUSH1 0x0 DUP4 ADD DUP5 PUSH2 0x10FF JUMP JUMPDEST SWAP3 SWAP2 POP POP JUMP JUMPDEST PUSH32 0x4E487B7100000000000000000000000000000000000000000000000000000000 PUSH1 0x0 MSTORE PUSH1 0x11 PUSH1 0x4 MSTORE PUSH1 0x24 PUSH1 0x0 REVERT JUMPDEST PUSH1 0x0 PUSH2 0x1163 DUP3 PUSH2 0xFB8 JUMP JUMPDEST SWAP2 POP PUSH2 0x116E DUP4 PUSH2 0xFB8 JUMP JUMPDEST SWAP3 POP DUP3 DUP3 ADD SWAP1 POP DUP1 DUP3 GT ISZERO PUSH2 0x1186 JUMPI PUSH2 0x1185 PUSH2 0x1129 JUMP JUMPDEST JUMPDEST SWAP3 SWAP2 POP POP JUMP JUMPDEST PUSH1 0x0 DUP3 DUP3 MSTORE PUSH1 0x20 DUP3 ADD SWAP1 POP SWAP3 SWAP2 POP POP JUMP JUMPDEST PUSH32 0x5374616B696E6720706572696F64206973206E6F74206F7665722E0000000000 PUSH1 0x0 DUP3 ADD MSTORE POP JUMP JUMPDEST PUSH1 0x0 PUSH2 0x11D3 PUSH1 0x1B DUP4 PUSH2 0x118C JUMP JUMPDEST SWAP2 POP PUSH2 0x11DE DUP3 PUSH2 0x119D JUMP JUMPDEST PUSH1 0x20 DUP3 ADD SWAP1 POP SWAP2 SWAP1 POP JUMP JUMPDEST PUSH1 0x0 PUSH1 0x20 DUP3 ADD SWAP1 POP DUP2 DUP2 SUB PUSH1 0x0 DUP4 ADD MSTORE PUSH2 0x1202 DUP2 PUSH2 0x11C6 JUMP JUMPDEST SWAP1 POP SWAP2 SWAP1 POP JUMP JUMPDEST PUSH1 0x0 PUSH2 0x1214 DUP3 PUSH2 0xFB8 JUMP JUMPDEST SWAP2 POP PUSH2 0x121F DUP4 PUSH2 0xFB8 JUMP JUMPDEST SWAP3 POP DUP3 DUP3 SUB SWAP1 POP DUP2 DUP2 GT ISZERO PUSH2 0x1237 JUMPI PUSH2 0x1236 PUSH2 0x1129 JUMP JUMPDEST JUMPDEST SWAP3 SWAP2 POP POP JUMP JUMPDEST PUSH32 0x4D697373696E6720455243323020746F6B656E73206F6E20636F6E7472616374 PUSH1 0x0 DUP3 ADD MSTORE POP JUMP JUMPDEST PUSH1 0x0 PUSH2 0x1273 PUSH1 0x20 DUP4 PUSH2 0x118C JUMP JUMPDEST SWAP2 POP PUSH2 0x127E DUP3 PUSH2 0x123D JUMP JUMPDEST PUSH1 0x20 DUP3 ADD SWAP1 POP SWAP2 SWAP1 POP JUMP JUMPDEST PUSH1 0x0 PUSH1 0x20 DUP3 ADD SWAP1 POP DUP2 DUP2 SUB PUSH1 0x0 DUP4 ADD MSTORE PUSH2 0x12A2 DUP2 PUSH2 0x1266 JUMP JUMPDEST SWAP1 POP SWAP2 SWAP1 POP JUMP JUMPDEST PUSH32 0x4D697373696E6720455243323020746F6B656E7320666F722072657761726420 PUSH1 0x0 DUP3 ADD MSTORE PUSH32 0x6F6E20636F6E7472616374000000000000000000000000000000000000000000 PUSH1 0x20 DUP3 ADD MSTORE POP JUMP JUMPDEST PUSH1 0x0 PUSH2 0x1305 PUSH1 0x2B DUP4 PUSH2 0x118C JUMP JUMPDEST SWAP2 POP PUSH2 0x1310 DUP3 PUSH2 0x12A9 JUMP JUMPDEST PUSH1 0x40 DUP3 ADD SWAP1 POP SWAP2 SWAP1 POP JUMP JUMPDEST PUSH1 0x0 PUSH1 0x20 DUP3 ADD SWAP1 POP DUP2 DUP2 SUB PUSH1 0x0 DUP4 ADD MSTORE PUSH2 0x1334 DUP2 PUSH2 0x12F8 JUMP JUMPDEST SWAP1 POP SWAP2 SWAP1 POP JUMP JUMPDEST PUSH1 0x0 PUSH1 0x40 DUP3 ADD SWAP1 POP PUSH2 0x1350 PUSH1 0x0 DUP4 ADD DUP6 PUSH2 0x1085 JUMP JUMPDEST PUSH2 0x135D PUSH1 0x20 DUP4 ADD DUP5 PUSH2 0xFC2 JUMP JUMPDEST SWAP4 SWAP3 POP POP POP JUMP JUMPDEST PUSH1 0x0 DUP2 ISZERO ISZERO SWAP1 POP SWAP2 SWAP1 POP JUMP JUMPDEST PUSH2 0x1379 DUP2 PUSH2 0x1364 JUMP JUMPDEST DUP2 EQ PUSH2 0x1384 JUMPI PUSH1 0x0 DUP1 REVERT JUMPDEST POP JUMP JUMPDEST PUSH1 0x0 DUP2 MLOAD SWAP1 POP PUSH2 0x1396 DUP2 PUSH2 0x1370 JUMP JUMPDEST SWAP3 SWAP2 POP POP JUMP JUMPDEST PUSH1 0x0 PUSH1 0x20 DUP3 DUP5 SUB SLT ISZERO PUSH2 0x13B2 JUMPI PUSH2 0x13B1 PUSH2 0xF28 JUMP JUMPDEST JUMPDEST PUSH1 0x0 PUSH2 0x13C0 DUP5 DUP3 DUP6 ADD PUSH2 0x1387 JUMP JUMPDEST SWAP2 POP POP SWAP3 SWAP2 POP POP JUMP JUMPDEST PUSH32 0x52657472696576616C2076616C75652065786365656420617574686F72697A65 PUSH1 0x0 DUP3 ADD MSTORE PUSH32 0x64206C696D69742E000000000000000000000000000000000000000000000000 PUSH1 0x20 DUP3 ADD MSTORE POP JUMP JUMPDEST PUSH1 0x0 PUSH2 0x1425 PUSH1 0x28 DUP4 PUSH2 0x118C JUMP JUMPDEST SWAP2 POP PUSH2 0x1430 DUP3 PUSH2 0x13C9 JUMP JUMPDEST PUSH1 0x40 DUP3 ADD SWAP1 POP SWAP2 SWAP1 POP JUMP JUMPDEST PUSH1 0x0 PUSH1 0x20 DUP3 ADD SWAP1 POP DUP2 DUP2 SUB PUSH1 0x0 DUP4 ADD MSTORE PUSH2 0x1454 DUP2 PUSH2 0x1418 JUMP JUMPDEST SWAP1 POP SWAP2 SWAP1 POP JUMP JUMPDEST PUSH1 0x0 PUSH1 0x60 DUP3 ADD SWAP1 POP PUSH2 0x1470 PUSH1 0x0 DUP4 ADD DUP7 PUSH2 0x1085 JUMP JUMPDEST PUSH2 0x147D PUSH1 0x20 DUP4 ADD DUP6 PUSH2 0x1085 JUMP JUMPDEST PUSH2 0x148A PUSH1 0x40 DUP4 ADD DUP5 PUSH2 0xFC2 JUMP JUMPDEST SWAP5 SWAP4 POP POP POP POP JUMP JUMPDEST PUSH1 0x0 PUSH2 0x149D DUP3 PUSH2 0xFB8 JUMP JUMPDEST SWAP2 POP PUSH2 0x14A8 DUP4 PUSH2 0xFB8 JUMP JUMPDEST SWAP3 POP DUP3 DUP3 MUL PUSH2 0x14B6 DUP2 PUSH2 0xFB8 JUMP JUMPDEST SWAP2 POP DUP3 DUP3 DIV DUP5 EQ DUP4 ISZERO OR PUSH2 0x14CD JUMPI PUSH2 0x14CC PUSH2 0x1129 JUMP JUMPDEST JUMPDEST POP SWAP3 SWAP2 POP POP JUMP JUMPDEST PUSH32 0x4E487B7100000000000000000000000000000000000000000000000000000000 PUSH1 0x0 MSTORE PUSH1 0x12 PUSH1 0x4 MSTORE PUSH1 0x24 PUSH1 0x0 REVERT JUMPDEST PUSH1 0x0 PUSH2 0x150E DUP3 PUSH2 0xFB8 JUMP JUMPDEST SWAP2 POP PUSH2 0x1519 DUP4 PUSH2 0xFB8 JUMP JUMPDEST SWAP3 POP DUP3 PUSH2 0x1529 JUMPI PUSH2 0x1528 PUSH2 0x14D4 JUMP JUMPDEST JUMPDEST DUP3 DUP3 DIV SWAP1 POP SWAP3 SWAP2 POP POP JUMP JUMPDEST PUSH32 0x4E6F7420656E6F75676820746F6B656E20746F20706179203225207265776172 PUSH1 0x0 DUP3 ADD MSTORE PUSH32 0x642E000000000000000000000000000000000000000000000000000000000000 PUSH1 0x20 DUP3 ADD MSTORE POP JUMP JUMPDEST PUSH1 0x0 PUSH2 0x1590 PUSH1 0x22 DUP4 PUSH2 0x118C JUMP JUMPDEST SWAP2 POP PUSH2 0x159B DUP3 PUSH2 0x1534 JUMP JUMPDEST PUSH1 0x40 DUP3 ADD SWAP1 POP SWAP2 SWAP1 POP JUMP JUMPDEST PUSH1 0x0 PUSH1 0x20 DUP3 ADD SWAP1 POP DUP2 DUP2 SUB PUSH1 0x0 DUP4 ADD MSTORE PUSH2 0x15BF DUP2 PUSH2 0x1583 JUMP JUMPDEST SWAP1 POP SWAP2 SWAP1 POP JUMP JUMPDEST PUSH32 0x4F776E61626C653A206E6577206F776E657220697320746865207A65726F2061 PUSH1 0x0 DUP3 ADD MSTORE PUSH32 0x6464726573730000000000000000000000000000000000000000000000000000 PUSH1 0x20 DUP3 ADD MSTORE POP JUMP JUMPDEST PUSH1 0x0 PUSH2 0x1622 PUSH1 0x26 DUP4 PUSH2 0x118C JUMP JUMPDEST SWAP2 POP PUSH2 0x162D DUP3 PUSH2 0x15C6 JUMP JUMPDEST PUSH1 0x40 DUP3 ADD SWAP1 POP SWAP2 SWAP1 POP JUMP JUMPDEST PUSH1 0x0 PUSH1 0x20 DUP3 ADD SWAP1 POP DUP2 DUP2 SUB PUSH1 0x0 DUP4 ADD MSTORE PUSH2 0x1651 DUP2 PUSH2 0x1615 JUMP JUMPDEST SWAP1 POP SWAP2 SWAP1 POP JUMP JUMPDEST PUSH32 0x4475726174696F6E2073686F756C64206265206174206C656173742031207765 PUSH1 0x0 DUP3 ADD MSTORE PUSH32 0x656B2E0000000000000000000000000000000000000000000000000000000000 PUSH1 0x20 DUP3 ADD MSTORE POP JUMP JUMPDEST PUSH1 0x0 PUSH2 0x16B4 PUSH1 0x23 DUP4 PUSH2 0x118C JUMP JUMPDEST SWAP2 POP PUSH2 0x16BF DUP3 PUSH2 0x1658 JUMP JUMPDEST PUSH1 0x40 DUP3 ADD SWAP1 POP SWAP2 SWAP1 POP JUMP JUMPDEST PUSH1 0x0 PUSH1 0x20 DUP3 ADD SWAP1 POP DUP2 DUP2 SUB PUSH1 0x0 DUP4 ADD MSTORE PUSH2 0x16E3 DUP2 PUSH2 0x16A7 JUMP JUMPDEST SWAP1 POP SWAP2 SWAP1 POP JUMP JUMPDEST PUSH32 0x4F776E61626C653A2063616C6C6572206973206E6F7420746865206F776E6572 PUSH1 0x0 DUP3 ADD MSTORE POP JUMP JUMPDEST PUSH1 0x0 PUSH2 0x1720 PUSH1 0x20 DUP4 PUSH2 0x118C JUMP JUMPDEST SWAP2 POP PUSH2 0x172B DUP3 PUSH2 0x16EA JUMP JUMPDEST PUSH1 0x20 DUP3 ADD SWAP1 POP SWAP2 SWAP1 POP JUMP JUMPDEST PUSH1 0x0 PUSH1 0x20 DUP3 ADD SWAP1 POP DUP2 DUP2 SUB PUSH1 0x0 DUP4 ADD MSTORE PUSH2 0x174F DUP2 PUSH2 0x1713 JUMP JUMPDEST SWAP1 POP SWAP2 SWAP1 POP JUMP INVALID LOG2 PUSH5 0x6970667358 0x22 SLT KECCAK256 0xDE EXTCODEHASH NOT 0xEF CALLVALUE CREATE2 PUSH8 0xB546FE950620DD9 CALLER PUSH12 0x65B7E6C7079016CF892425C5 PUSH22 0xE9F164736F6C63430008110033000000000000000000 "},"methodIdentifiers":{"_duration()":"245c7c60","_ierc20()":"e90bfc4b","_percentReward()":"b53b26a1","addReward(uint256)":"74de4ec4","approveReward(address,uint256)":"424d4006","balanceOf(address)":"70a08231","deposit(uint256)":"b6b55f25","getDuration()":"ad2e8c9b","lastDepositTime(address)":"02527753","owner()":"8da5cb5b","renounceOwnership()":"715018a6","rewardTotal()":"f959680b","setDuration(uint256)":"f6be71d1","totalStaked()":"817b1cd2","transferOwnership(address)":"f2fde38b","withdraw()":"3ccfd60b"}}}}}