{
  "_format": "hh-sol-artifact-1",
  "contractName": "CampaignSale",
  "sourceName": "contracts/campaign/CampaignSale.sol",
  "abi": [
    {
      "inputs": [
        {
          "internalType": "contract IERC20",
          "name": "ierc20",
          "type": "address"
        }
      ],
      "stateMutability": "nonpayable",
      "type": "constructor"
    },
    {
      "anonymous": false,
      "inputs": [
        {
          "indexed": false,
          "internalType": "uint256",
          "name": "id",
          "type": "uint256"
        }
      ],
      "name": "CancelCampaign",
      "type": "event"
    },
    {
      "anonymous": false,
      "inputs": [
        {
          "indexed": false,
          "internalType": "uint256",
          "name": "id",
          "type": "uint256"
        }
      ],
      "name": "ClaimCampaign",
      "type": "event"
    },
    {
      "anonymous": false,
      "inputs": [
        {
          "indexed": true,
          "internalType": "uint256",
          "name": "id",
          "type": "uint256"
        },
        {
          "indexed": true,
          "internalType": "address",
          "name": "caller",
          "type": "address"
        },
        {
          "indexed": false,
          "internalType": "uint256",
          "name": "amount",
          "type": "uint256"
        }
      ],
      "name": "Contribute",
      "type": "event"
    },
    {
      "anonymous": false,
      "inputs": [
        {
          "indexed": false,
          "internalType": "uint256",
          "name": "id",
          "type": "uint256"
        },
        {
          "indexed": true,
          "internalType": "address",
          "name": "creator",
          "type": "address"
        },
        {
          "indexed": false,
          "internalType": "uint256",
          "name": "goal",
          "type": "uint256"
        },
        {
          "indexed": false,
          "internalType": "uint32",
          "name": "startAt",
          "type": "uint32"
        },
        {
          "indexed": false,
          "internalType": "uint32",
          "name": "endAt",
          "type": "uint32"
        }
      ],
      "name": "LaunchCampaign",
      "type": "event"
    },
    {
      "anonymous": false,
      "inputs": [
        {
          "indexed": true,
          "internalType": "address",
          "name": "previousOwner",
          "type": "address"
        },
        {
          "indexed": true,
          "internalType": "address",
          "name": "newOwner",
          "type": "address"
        }
      ],
      "name": "OwnershipTransferred",
      "type": "event"
    },
    {
      "anonymous": false,
      "inputs": [
        {
          "indexed": false,
          "internalType": "uint256",
          "name": "id",
          "type": "uint256"
        },
        {
          "indexed": true,
          "internalType": "address",
          "name": "caller",
          "type": "address"
        },
        {
          "indexed": false,
          "internalType": "uint256",
          "name": "amount",
          "type": "uint256"
        }
      ],
      "name": "RefundCampaign",
      "type": "event"
    },
    {
      "anonymous": false,
      "inputs": [
        {
          "indexed": true,
          "internalType": "uint256",
          "name": "id",
          "type": "uint256"
        },
        {
          "indexed": true,
          "internalType": "address",
          "name": "caller",
          "type": "address"
        },
        {
          "indexed": false,
          "internalType": "uint256",
          "name": "amount",
          "type": "uint256"
        }
      ],
      "name": "Withdraw",
      "type": "event"
    },
    {
      "inputs": [],
      "name": "_ierc20",
      "outputs": [
        {
          "internalType": "contract IERC20",
          "name": "",
          "type": "address"
        }
      ],
      "stateMutability": "view",
      "type": "function"
    },
    {
      "inputs": [
        {
          "internalType": "uint256",
          "name": "_id",
          "type": "uint256"
        }
      ],
      "name": "cancelCampaign",
      "outputs": [],
      "stateMutability": "nonpayable",
      "type": "function"
    },
    {
      "inputs": [
        {
          "internalType": "uint256",
          "name": "_id",
          "type": "uint256"
        }
      ],
      "name": "claimCampaign",
      "outputs": [],
      "stateMutability": "nonpayable",
      "type": "function"
    },
    {
      "inputs": [
        {
          "internalType": "uint256",
          "name": "_id",
          "type": "uint256"
        },
        {
          "internalType": "uint256",
          "name": "_amount",
          "type": "uint256"
        }
      ],
      "name": "contribute",
      "outputs": [],
      "stateMutability": "nonpayable",
      "type": "function"
    },
    {
      "inputs": [
        {
          "internalType": "uint256",
          "name": "_id",
          "type": "uint256"
        }
      ],
      "name": "getCampaign",
      "outputs": [
        {
          "components": [
            {
              "internalType": "address",
              "name": "creator",
              "type": "address"
            },
            {
              "internalType": "uint256",
              "name": "goal",
              "type": "uint256"
            },
            {
              "internalType": "uint256",
              "name": "pledged",
              "type": "uint256"
            },
            {
              "internalType": "uint32",
              "name": "startAt",
              "type": "uint32"
            },
            {
              "internalType": "uint32",
              "name": "endAt",
              "type": "uint32"
            },
            {
              "internalType": "bool",
              "name": "claimed",
              "type": "bool"
            }
          ],
          "internalType": "struct ICampaignSale.Campaign",
          "name": "campaign",
          "type": "tuple"
        }
      ],
      "stateMutability": "view",
      "type": "function"
    },
    {
      "inputs": [
        {
          "internalType": "uint256",
          "name": "_goal",
          "type": "uint256"
        },
        {
          "internalType": "uint32",
          "name": "_startAt",
          "type": "uint32"
        },
        {
          "internalType": "uint32",
          "name": "_endAt",
          "type": "uint32"
        }
      ],
      "name": "launchCampaign",
      "outputs": [],
      "stateMutability": "nonpayable",
      "type": "function"
    },
    {
      "inputs": [],
      "name": "owner",
      "outputs": [
        {
          "internalType": "address",
          "name": "",
          "type": "address"
        }
      ],
      "stateMutability": "view",
      "type": "function"
    },
    {
      "inputs": [
        {
          "internalType": "uint256",
          "name": "_id",
          "type": "uint256"
        }
      ],
      "name": "refundCampaign",
      "outputs": [],
      "stateMutability": "nonpayable",
      "type": "function"
    },
    {
      "inputs": [],
      "name": "renounceOwnership",
      "outputs": [],
      "stateMutability": "nonpayable",
      "type": "function"
    },
    {
      "inputs": [
        {
          "internalType": "address",
          "name": "newOwner",
          "type": "address"
        }
      ],
      "name": "transferOwnership",
      "outputs": [],
      "stateMutability": "nonpayable",
      "type": "function"
    },
    {
      "inputs": [
        {
          "internalType": "uint256",
          "name": "_id",
          "type": "uint256"
        },
        {
          "internalType": "uint256",
          "name": "_amount",
          "type": "uint256"
        }
      ],
      "name": "withdraw",
      "outputs": [],
      "stateMutability": "nonpayable",
      "type": "function"
    }
  ],
  "bytecode": "0x60806040523480156200001157600080fd5b5060405162002d8a38038062002d8a8339818101604052810190620000379190620001e9565b620000576200004b6200009f60201b60201c565b620000a760201b60201c565b80600160006101000a81548173ffffffffffffffffffffffffffffffffffffffff021916908373ffffffffffffffffffffffffffffffffffffffff160217905550506200021b565b600033905090565b60008060009054906101000a900473ffffffffffffffffffffffffffffffffffffffff169050816000806101000a81548173ffffffffffffffffffffffffffffffffffffffff021916908373ffffffffffffffffffffffffffffffffffffffff1602179055508173ffffffffffffffffffffffffffffffffffffffff168173ffffffffffffffffffffffffffffffffffffffff167f8be0079c531659141344cd1fd0a4f28419497f9722a3daafe3b4186f6b6457e060405160405180910390a35050565b600080fd5b600073ffffffffffffffffffffffffffffffffffffffff82169050919050565b60006200019d8262000170565b9050919050565b6000620001b18262000190565b9050919050565b620001c381620001a4565b8114620001cf57600080fd5b50565b600081519050620001e381620001b8565b92915050565b6000602082840312156200020257620002016200016b565b5b60006200021284828501620001d2565b91505092915050565b612b5f806200022b6000396000f3fe608060405234801561001057600080fd5b50600436106100a95760003560e01c80638c590917116100715780638c5909171461013c5780638da5cb5b14610158578063d4f5981514610176578063e90bfc4b14610192578063f2fde38b146101b0578063f59a9bb0146101cc576100a9565b8063441a3e70146100ae57806345598b4a146100ca5780635598f8cc146100e65780635e2df35f14610116578063715018a614610132575b600080fd5b6100c860048036038101906100c39190611b5c565b6101e8565b005b6100e460048036038101906100df9190611b9c565b6105dd565b005b61010060048036038101906100fb9190611b9c565b6107ba565b60405161010d9190611cce565b60405180910390f35b610130600480360381019061012b9190611b9c565b61095d565b005b61013a610d60565b005b61015660048036038101906101519190611b5c565b610d74565b005b6101606110e9565b60405161016d9190611cf8565b60405180910390f35b610190600480360381019061018b9190611d3f565b611112565b005b61019a61142e565b6040516101a79190611df1565b60405180910390f35b6101ca60048036038101906101c59190611e38565b611454565b005b6101e660048036038101906101e19190611b9c565b6114d7565b005b600073ffffffffffffffffffffffffffffffffffffffff166003600084815260200190815260200160002060000160009054906101000a900473ffffffffffffffffffffffffffffffffffffffff1673ffffffffffffffffffffffffffffffffffffffff160361028d576040517f08c379a000000000000000000000000000000000000000000000000000000000815260040161028490611ec2565b60405180910390fd5b426003600084815260200190815260200160002060030160009054906101000a900463ffffffff1663ffffffff16106102fb576040517f08c379a00000000000000000000000000000000000000000000000000000000081526004016102f290611f54565b60405180910390fd5b426003600084815260200190815260200160002060030160049054906101000a900463ffffffff1663ffffffff1611610369576040517f08c379a000000000000000000000000000000000000000000000000000000000815260040161036090611fc0565b60405180910390fd5b80600360008481526020019081526020016000206002015410156103c2576040517f08c379a00000000000000000000000000000000000000000000000000000000081526004016103b990612052565b60405180910390fd5b806004600084815260200190815260200160002060003373ffffffffffffffffffffffffffffffffffffffff1673ffffffffffffffffffffffffffffffffffffffff168152602001908152602001600020541015610455576040517f08c379a000000000000000000000000000000000000000000000000000000000815260040161044c9061210a565b60405180910390fd5b8060036000848152602001908152602001600020600201600082825461047b9190612159565b92505081905550806004600084815260200190815260200160002060003373ffffffffffffffffffffffffffffffffffffffff1673ffffffffffffffffffffffffffffffffffffffff16815260200190815260200160002060008282546104e29190612159565b92505081905550600160009054906101000a900473ffffffffffffffffffffffffffffffffffffffff1673ffffffffffffffffffffffffffffffffffffffff1663a9059cbb33836040518363ffffffff1660e01b815260040161054692919061219c565b6020604051808303816000875af1158015610565573d6000803e3d6000fd5b505050506040513d601f19601f8201168201806040525081019061058991906121f1565b503373ffffffffffffffffffffffffffffffffffffffff16827f9da6493a92039daf47d1f2d7a782299c5994c6323eb1e972f69c432089ec52bf836040516105d1919061221e565b60405180910390a35050565b803373ffffffffffffffffffffffffffffffffffffffff166003600083815260200190815260200160002060000160009054906101000a900473ffffffffffffffffffffffffffffffffffffffff1673ffffffffffffffffffffffffffffffffffffffff1614610682576040517f08c379a0000000000000000000000000000000000000000000000000000000008152600401610679906122ab565b60405180910390fd5b426003600084815260200190815260200160002060030160009054906101000a900463ffffffff1663ffffffff16116106f0576040517f08c379a00000000000000000000000000000000000000000000000000000000081526004016106e79061233d565b60405180910390fd5b60036000838152602001908152602001600020600080820160006101000a81549073ffffffffffffffffffffffffffffffffffffffff0219169055600182016000905560028201600090556003820160006101000a81549063ffffffff02191690556003820160046101000a81549063ffffffff02191690556003820160086101000a81549060ff021916905550507ff5126d94294580c6b6461359fff83f8d78f67eaab6e1b834f8d9f2c2e1dbc734826040516107ae919061221e565b60405180910390a15050565b6107c2611ac7565b600073ffffffffffffffffffffffffffffffffffffffff166003600084815260200190815260200160002060000160009054906101000a900473ffffffffffffffffffffffffffffffffffffffff1673ffffffffffffffffffffffffffffffffffffffff1603610867576040517f08c379a000000000000000000000000000000000000000000000000000000000815260040161085e90611ec2565b60405180910390fd5b600360008381526020019081526020016000206040518060c00160405290816000820160009054906101000a900473ffffffffffffffffffffffffffffffffffffffff1673ffffffffffffffffffffffffffffffffffffffff1673ffffffffffffffffffffffffffffffffffffffff16815260200160018201548152602001600282015481526020016003820160009054906101000a900463ffffffff1663ffffffff1663ffffffff1681526020016003820160049054906101000a900463ffffffff1663ffffffff1663ffffffff1681526020016003820160089054906101000a900460ff1615151515815250509050919050565b600073ffffffffffffffffffffffffffffffffffffffff166003600083815260200190815260200160002060000160009054906101000a900473ffffffffffffffffffffffffffffffffffffffff1673ffffffffffffffffffffffffffffffffffffffff1603610a02576040517f08c379a00000000000000000000000000000000000000000000000000000000081526004016109f990611ec2565b60405180910390fd5b3373ffffffffffffffffffffffffffffffffffffffff166003600083815260200190815260200160002060000160009054906101000a900473ffffffffffffffffffffffffffffffffffffffff1673ffffffffffffffffffffffffffffffffffffffff1614610aa6576040517f08c379a0000000000000000000000000000000000000000000000000000000008152600401610a9d906122ab565b60405180910390fd5b426003600083815260200190815260200160002060030160049054906101000a900463ffffffff1663ffffffff161115610b15576040517f08c379a0000000000000000000000000000000000000000000000000000000008152600401610b0c906123cf565b60405180910390fd5b600015156003600083815260200190815260200160002060030160089054906101000a900460ff16151514610b7f576040517f08c379a0000000000000000000000000000000000000000000000000000000008152600401610b769061243b565b60405180910390fd5b600360008281526020019081526020016000206002015460036000838152602001908152602001600020600101541115610bee576040517f08c379a0000000000000000000000000000000000000000000000000000000008152600401610be5906124cd565b60405180910390fd5b600160009054906101000a900473ffffffffffffffffffffffffffffffffffffffff1673ffffffffffffffffffffffffffffffffffffffff1663a9059cbb6003600084815260200190815260200160002060000160009054906101000a900473ffffffffffffffffffffffffffffffffffffffff1660036000858152602001908152602001600020600201546040518363ffffffff1660e01b8152600401610c9792919061219c565b6020604051808303816000875af1158015610cb6573d6000803e3d6000fd5b505050506040513d601f19601f82011682018060405250810190610cda91906121f1565b506000600360008381526020019081526020016000206002018190555060016003600083815260200190815260200160002060030160086101000a81548160ff0219169083151502179055507f37ead6911c5bdb1861dce28e7d7b27bcd6151136346e58141314e46d7e9ca70e81604051610d55919061221e565b60405180910390a150565b610d68611959565b610d7260006119d7565b565b600073ffffffffffffffffffffffffffffffffffffffff166003600084815260200190815260200160002060000160009054906101000a900473ffffffffffffffffffffffffffffffffffffffff1673ffffffffffffffffffffffffffffffffffffffff1603610e19576040517f08c379a0000000000000000000000000000000000000000000000000000000008152600401610e1090611ec2565b60405180910390fd5b426003600084815260200190815260200160002060030160009054906101000a900463ffffffff1663ffffffff1610610e87576040517f08c379a0000000000000000000000000000000000000000000000000000000008152600401610e7e90611f54565b60405180910390fd5b426003600084815260200190815260200160002060030160049054906101000a900463ffffffff1663ffffffff1611610ef5576040517f08c379a0000000000000000000000000000000000000000000000000000000008152600401610eec90611fc0565b60405180910390fd5b600015156003600084815260200190815260200160002060030160089054906101000a900460ff16151514610f5f576040517f08c379a0000000000000000000000000000000000000000000000000000000008152600401610f5690612539565b60405180910390fd5b80600360008481526020019081526020016000206002016000828254610f859190612559565b92505081905550806004600084815260200190815260200160002060003373ffffffffffffffffffffffffffffffffffffffff1673ffffffffffffffffffffffffffffffffffffffff1681526020019081526020016000206000828254610fec9190612559565b92505081905550600160009054906101000a900473ffffffffffffffffffffffffffffffffffffffff1673ffffffffffffffffffffffffffffffffffffffff166323b872dd3330846040518463ffffffff1660e01b81526004016110529392919061258d565b6020604051808303816000875af1158015611071573d6000803e3d6000fd5b505050506040513d601f19601f8201168201806040525081019061109591906121f1565b503373ffffffffffffffffffffffffffffffffffffffff16827fae8785da7bae7df1ae7a3d1838c261e59d1c7294715e21a2d56b9968650a73f4836040516110dd919061221e565b60405180910390a35050565b60008060009054906101000a900473ffffffffffffffffffffffffffffffffffffffff16905090565b60008311611155576040517f08c379a000000000000000000000000000000000000000000000000000000000815260040161114c90612610565b60405180910390fd5b428263ffffffff161161119d576040517f08c379a0000000000000000000000000000000000000000000000000000000008152600401611194906126a2565b60405180910390fd5b428163ffffffff16116111e5576040517f08c379a00000000000000000000000000000000000000000000000000000000081526004016111dc9061270e565b60405180910390fd5b8163ffffffff168163ffffffff1611611233576040517f08c379a000000000000000000000000000000000000000000000000000000000815260040161122a906127a0565b60405180910390fd5b6276a700828261124391906127c0565b63ffffffff16111561128a576040517f08c379a00000000000000000000000000000000000000000000000000000000081526004016112819061286a565b60405180910390fd5b6112946002611a9b565b60006112a06002611ab1565b90506040518060c001604052803373ffffffffffffffffffffffffffffffffffffffff168152602001858152602001600081526020018463ffffffff1681526020018363ffffffff168152602001600015158152506003600083815260200190815260200160002060008201518160000160006101000a81548173ffffffffffffffffffffffffffffffffffffffff021916908373ffffffffffffffffffffffffffffffffffffffff160217905550602082015181600101556040820151816002015560608201518160030160006101000a81548163ffffffff021916908363ffffffff16021790555060808201518160030160046101000a81548163ffffffff021916908363ffffffff16021790555060a08201518160030160086101000a81548160ff0219169083151502179055509050503373ffffffffffffffffffffffffffffffffffffffff167f90fed46e9b42a3c779b2c2324d4f971790878107c42899be2a02027912c3bc02828686866040516114209493929190612899565b60405180910390a250505050565b600160009054906101000a900473ffffffffffffffffffffffffffffffffffffffff1681565b61145c611959565b600073ffffffffffffffffffffffffffffffffffffffff168173ffffffffffffffffffffffffffffffffffffffff16036114cb576040517f08c379a00000000000000000000000000000000000000000000000000000000081526004016114c290612950565b60405180910390fd5b6114d4816119d7565b50565b600073ffffffffffffffffffffffffffffffffffffffff166003600083815260200190815260200160002060000160009054906101000a900473ffffffffffffffffffffffffffffffffffffffff1673ffffffffffffffffffffffffffffffffffffffff160361157c576040517f08c379a000000000000000000000000000000000000000000000000000000000815260040161157390611ec2565b60405180910390fd5b426003600083815260200190815260200160002060030160049054906101000a900463ffffffff1663ffffffff1611156115eb576040517f08c379a00000000000000000000000000000000000000000000000000000000081526004016115e2906123cf565b60405180910390fd5b6003600082815260200190815260200160002060020154600360008381526020019081526020016000206001015411611659576040517f08c379a0000000000000000000000000000000000000000000000000000000008152600401611650906129e2565b60405180910390fd5b60006004600083815260200190815260200160002060003373ffffffffffffffffffffffffffffffffffffffff1673ffffffffffffffffffffffffffffffffffffffff16815260200190815260200160002054116116ec576040517f08c379a00000000000000000000000000000000000000000000000000000000081526004016116e390612a74565b60405180910390fd5b60006004600083815260200190815260200160002060003373ffffffffffffffffffffffffffffffffffffffff1673ffffffffffffffffffffffffffffffffffffffff1681526020019081526020016000205490506004600083815260200190815260200160002060003373ffffffffffffffffffffffffffffffffffffffff1673ffffffffffffffffffffffffffffffffffffffff168152602001908152602001600020546003600084815260200190815260200160002060020160008282546117b79190612159565b92505081905550600160009054906101000a900473ffffffffffffffffffffffffffffffffffffffff1673ffffffffffffffffffffffffffffffffffffffff1663a9059cbb336004600086815260200190815260200160002060003373ffffffffffffffffffffffffffffffffffffffff1673ffffffffffffffffffffffffffffffffffffffff168152602001908152602001600020546040518363ffffffff1660e01b815260040161186b92919061219c565b6020604051808303816000875af115801561188a573d6000803e3d6000fd5b505050506040513d601f19601f820116820180604052508101906118ae91906121f1565b5060006004600084815260200190815260200160002060003373ffffffffffffffffffffffffffffffffffffffff1673ffffffffffffffffffffffffffffffffffffffff168152602001908152602001600020819055503373ffffffffffffffffffffffffffffffffffffffff167f348e529431fc9a11e96d644ae5962821332c1794d176069a88b4385a4cfaa42a838360405161194d929190612a94565b60405180910390a25050565b611961611abf565b73ffffffffffffffffffffffffffffffffffffffff1661197f6110e9565b73ffffffffffffffffffffffffffffffffffffffff16146119d5576040517f08c379a00000000000000000000000000000000000000000000000000000000081526004016119cc90612b09565b60405180910390fd5b565b60008060009054906101000a900473ffffffffffffffffffffffffffffffffffffffff169050816000806101000a81548173ffffffffffffffffffffffffffffffffffffffff021916908373ffffffffffffffffffffffffffffffffffffffff1602179055508173ffffffffffffffffffffffffffffffffffffffff168173ffffffffffffffffffffffffffffffffffffffff167f8be0079c531659141344cd1fd0a4f28419497f9722a3daafe3b4186f6b6457e060405160405180910390a35050565b6001816000016000828254019250508190555050565b600081600001549050919050565b600033905090565b6040518060c00160405280600073ffffffffffffffffffffffffffffffffffffffff1681526020016000815260200160008152602001600063ffffffff168152602001600063ffffffff1681526020016000151581525090565b600080fd5b6000819050919050565b611b3981611b26565b8114611b4457600080fd5b50565b600081359050611b5681611b30565b92915050565b60008060408385031215611b7357611b72611b21565b5b6000611b8185828601611b47565b9250506020611b9285828601611b47565b9150509250929050565b600060208284031215611bb257611bb1611b21565b5b6000611bc084828501611b47565b91505092915050565b600073ffffffffffffffffffffffffffffffffffffffff82169050919050565b6000611bf482611bc9565b9050919050565b611c0481611be9565b82525050565b611c1381611b26565b82525050565b600063ffffffff82169050919050565b611c3281611c19565b82525050565b60008115159050919050565b611c4d81611c38565b82525050565b60c082016000820151611c696000850182611bfb565b506020820151611c7c6020850182611c0a565b506040820151611c8f6040850182611c0a565b506060820151611ca26060850182611c29565b506080820151611cb56080850182611c29565b5060a0820151611cc860a0850182611c44565b50505050565b600060c082019050611ce36000830184611c53565b92915050565b611cf281611be9565b82525050565b6000602082019050611d0d6000830184611ce9565b92915050565b611d1c81611c19565b8114611d2757600080fd5b50565b600081359050611d3981611d13565b92915050565b600080600060608486031215611d5857611d57611b21565b5b6000611d6686828701611b47565b9350506020611d7786828701611d2a565b9250506040611d8886828701611d2a565b9150509250925092565b6000819050919050565b6000611db7611db2611dad84611bc9565b611d92565b611bc9565b9050919050565b6000611dc982611d9c565b9050919050565b6000611ddb82611dbe565b9050919050565b611deb81611dd0565b82525050565b6000602082019050611e066000830184611de2565b92915050565b611e1581611be9565b8114611e2057600080fd5b50565b600081359050611e3281611e0c565b92915050565b600060208284031215611e4e57611e4d611b21565b5b6000611e5c84828501611e23565b91505092915050565b600082825260208201905092915050565b7f5468652063616d706169676e20646f6573206e6f742065786973742e00000000600082015250565b6000611eac601c83611e65565b9150611eb782611e76565b602082019050919050565b60006020820190508181036000830152611edb81611e9f565b9050919050565b7f5468652063616d706169676e20686173206e6f7420737461727465642079657460008201527f2e00000000000000000000000000000000000000000000000000000000000000602082015250565b6000611f3e602183611e65565b9150611f4982611ee2565b604082019050919050565b60006020820190508181036000830152611f6d81611f31565b9050919050565b7f5468652063616d706169676e206861732066696e69736865642e000000000000600082015250565b6000611faa601a83611e65565b9150611fb582611f74565b602082019050919050565b60006020820190508181036000830152611fd981611f9d565b9050919050565b7f54686520616d6f756e7420746f2077697468647261772069732067726561746560008201527f72207468616e2074686520616d6f756e7420636f6e74726962757465642e0000602082015250565b600061203c603e83611e65565b915061204782611fe0565b604082019050919050565b6000602082019050818103600083015261206b8161202f565b9050919050565b7f54686520616d6f756e7420746f2077697468647261772069732067726561746560008201527f72207468616e2074686520616d6f756e7420796f7520636f6e7472696275746560208201527f642e000000000000000000000000000000000000000000000000000000000000604082015250565b60006120f4604283611e65565b91506120ff82612072565b606082019050919050565b60006020820190508181036000830152612123816120e7565b9050919050565b7f4e487b7100000000000000000000000000000000000000000000000000000000600052601160045260246000fd5b600061216482611b26565b915061216f83611b26565b92508282039050818111156121875761218661212a565b5b92915050565b61219681611b26565b82525050565b60006040820190506121b16000830185611ce9565b6121be602083018461218d565b9392505050565b6121ce81611c38565b81146121d957600080fd5b50565b6000815190506121eb816121c5565b92915050565b60006020828403121561220757612206611b21565b5b6000612215848285016121dc565b91505092915050565b6000602082019050612233600083018461218d565b92915050565b7f4f6e6c792063726561746f722063616e2063616c6c20746869732066756e637460008201527f696f6e2e00000000000000000000000000000000000000000000000000000000602082015250565b6000612295602483611e65565b91506122a082612239565b604082019050919050565b600060208201905081810360008301526122c481612288565b9050919050565b7f5468652063616d706169676e2068617320616c7265616479207374617274656460008201527f2c20796f752063616e27742063616e63656c2069742e00000000000000000000602082015250565b6000612327603683611e65565b9150612332826122cb565b604082019050919050565b600060208201905081810360008301526123568161231a565b9050919050565b7f5468652063616d706169676e20686173206e6f742066696e697368656420796560008201527f742e000000000000000000000000000000000000000000000000000000000000602082015250565b60006123b9602283611e65565b91506123c48261235d565b604082019050919050565b600060208201905081810360008301526123e8816123ac565b9050919050565b7f43616d706169676e2077617320616c726561647920636c61696d65642e000000600082015250565b6000612425601d83611e65565b9150612430826123ef565b602082019050919050565b6000602082019050818103600083015261245481612418565b9050919050565b7f54686520676f616c206f66207468652063616d706169676e20686173206e6f7460008201527f206265656e20726561636865642e000000000000000000000000000000000000602082015250565b60006124b7602e83611e65565b91506124c28261245b565b604082019050919050565b600060208201905081810360008301526124e6816124aa565b9050919050565b7f5468652063616d706169676e20686173206265656e20636c61696d65642e0000600082015250565b6000612523601e83611e65565b915061252e826124ed565b602082019050919050565b6000602082019050818103600083015261255281612516565b9050919050565b600061256482611b26565b915061256f83611b26565b92508282019050808211156125875761258661212a565b5b92915050565b60006060820190506125a26000830186611ce9565b6125af6020830185611ce9565b6125bc604083018461218d565b949350505050565b7f476f616c206d75737420626520677261746572207468616e20302e0000000000600082015250565b60006125fa601b83611e65565b9150612605826125c4565b602082019050919050565b60006020820190508181036000830152612629816125ed565b9050919050565b7f43616d706169676e206d75737420737461727420696e2074686520667574757260008201527f652e000000000000000000000000000000000000000000000000000000000000602082015250565b600061268c602283611e65565b915061269782612630565b604082019050919050565b600060208201905081810360008301526126bb8161267f565b9050919050565b7f43616d706169676e206d75737420656e6420696e20746865206675747572652e600082015250565b60006126f8602083611e65565b9150612703826126c2565b602082019050919050565b60006020820190508181036000830152612727816126eb565b9050919050565b7f456e64696e672064617465206d75737420626520627265666f7265205374617260008201527f7420646174652e00000000000000000000000000000000000000000000000000602082015250565b600061278a602783611e65565b91506127958261272e565b604082019050919050565b600060208201905081810360008301526127b98161277d565b9050919050565b60006127cb82611c19565b91506127d683611c19565b9250828203905063ffffffff8111156127f2576127f161212a565b5b92915050565b7f412063616d706169676e2073686f756c64206c6173742061206d6178696d756d60008201527f206f6620393020646179732e0000000000000000000000000000000000000000602082015250565b6000612854602c83611e65565b915061285f826127f8565b604082019050919050565b6000602082019050818103600083015261288381612847565b9050919050565b61289381611c19565b82525050565b60006080820190506128ae600083018761218d565b6128bb602083018661218d565b6128c8604083018561288a565b6128d5606083018461288a565b95945050505050565b7f4f776e61626c653a206e6577206f776e657220697320746865207a65726f206160008201527f6464726573730000000000000000000000000000000000000000000000000000602082015250565b600061293a602683611e65565b9150612945826128de565b604082019050919050565b600060208201905081810360008301526129698161292d565b9050919050565b7f54686520676f616c206f66207468652063616d706169676e206861732062656560008201527f6e20726561636865642e00000000000000000000000000000000000000000000602082015250565b60006129cc602a83611e65565b91506129d782612970565b604082019050919050565b600060208201905081810360008301526129fb816129bf565b9050919050565b7f596f752068617665206e6f7420636f6e747269627574656420746f207468697360008201527f2063616d706169676e2e00000000000000000000000000000000000000000000602082015250565b6000612a5e602a83611e65565b9150612a6982612a02565b604082019050919050565b60006020820190508181036000830152612a8d81612a51565b9050919050565b6000604082019050612aa9600083018561218d565b612ab6602083018461218d565b9392505050565b7f4f776e61626c653a2063616c6c6572206973206e6f7420746865206f776e6572600082015250565b6000612af3602083611e65565b9150612afe82612abd565b602082019050919050565b60006020820190508181036000830152612b2281612ae6565b905091905056fea2646970667358221220c496130fcc273d6e34065f802e880b3cfd2a3f03f8253205f40297632b815ede64736f6c63430008110033",
  "linkReferences": {},
  "deployedLinkReferences": {}
}