{
  "_format": "hh-sol-artifact-1",
  "contractName": "Staking",
  "sourceName": "contracts/Staking.sol",
  "abi": [
    {
      "inputs": [
        {
          "internalType": "contract IERC20",
          "name": "ierc20",
          "type": "address"
        }
      ],
      "stateMutability": "nonpayable",
      "type": "constructor"
    },
    {
      "anonymous": false,
      "inputs": [
        {
          "indexed": false,
          "internalType": "address",
          "name": "account",
          "type": "address"
        },
        {
          "indexed": false,
          "internalType": "uint256",
          "name": "amount",
          "type": "uint256"
        }
      ],
      "name": "AddReward",
      "type": "event"
    },
    {
      "anonymous": false,
      "inputs": [
        {
          "indexed": false,
          "internalType": "address",
          "name": "account",
          "type": "address"
        },
        {
          "indexed": false,
          "internalType": "uint256",
          "name": "amount",
          "type": "uint256"
        }
      ],
      "name": "ApproveReward",
      "type": "event"
    },
    {
      "anonymous": false,
      "inputs": [
        {
          "indexed": false,
          "internalType": "address",
          "name": "account",
          "type": "address"
        },
        {
          "indexed": false,
          "internalType": "uint256",
          "name": "amount",
          "type": "uint256"
        }
      ],
      "name": "Deposit",
      "type": "event"
    },
    {
      "anonymous": false,
      "inputs": [
        {
          "indexed": false,
          "internalType": "uint256",
          "name": "duration",
          "type": "uint256"
        }
      ],
      "name": "Duration",
      "type": "event"
    },
    {
      "anonymous": false,
      "inputs": [
        {
          "indexed": true,
          "internalType": "address",
          "name": "previousOwner",
          "type": "address"
        },
        {
          "indexed": true,
          "internalType": "address",
          "name": "newOwner",
          "type": "address"
        }
      ],
      "name": "OwnershipTransferred",
      "type": "event"
    },
    {
      "anonymous": false,
      "inputs": [
        {
          "indexed": false,
          "internalType": "address",
          "name": "account",
          "type": "address"
        },
        {
          "indexed": false,
          "internalType": "uint256",
          "name": "amount",
          "type": "uint256"
        }
      ],
      "name": "Withdraw",
      "type": "event"
    },
    {
      "inputs": [],
      "name": "_duration",
      "outputs": [
        {
          "internalType": "uint256",
          "name": "",
          "type": "uint256"
        }
      ],
      "stateMutability": "view",
      "type": "function"
    },
    {
      "inputs": [],
      "name": "_ierc20",
      "outputs": [
        {
          "internalType": "contract IERC20",
          "name": "",
          "type": "address"
        }
      ],
      "stateMutability": "view",
      "type": "function"
    },
    {
      "inputs": [],
      "name": "_percentReward",
      "outputs": [
        {
          "internalType": "uint256",
          "name": "",
          "type": "uint256"
        }
      ],
      "stateMutability": "view",
      "type": "function"
    },
    {
      "inputs": [
        {
          "internalType": "uint256",
          "name": "amount",
          "type": "uint256"
        }
      ],
      "name": "addReward",
      "outputs": [],
      "stateMutability": "nonpayable",
      "type": "function"
    },
    {
      "inputs": [
        {
          "internalType": "address",
          "name": "_spender",
          "type": "address"
        },
        {
          "internalType": "uint256",
          "name": "amount",
          "type": "uint256"
        }
      ],
      "name": "approveReward",
      "outputs": [],
      "stateMutability": "nonpayable",
      "type": "function"
    },
    {
      "inputs": [
        {
          "internalType": "address",
          "name": "account",
          "type": "address"
        }
      ],
      "name": "balanceOf",
      "outputs": [
        {
          "internalType": "uint256",
          "name": "",
          "type": "uint256"
        }
      ],
      "stateMutability": "view",
      "type": "function"
    },
    {
      "inputs": [
        {
          "internalType": "uint256",
          "name": "amount",
          "type": "uint256"
        }
      ],
      "name": "deposit",
      "outputs": [],
      "stateMutability": "nonpayable",
      "type": "function"
    },
    {
      "inputs": [],
      "name": "getDuration",
      "outputs": [
        {
          "internalType": "uint256",
          "name": "",
          "type": "uint256"
        }
      ],
      "stateMutability": "view",
      "type": "function"
    },
    {
      "inputs": [
        {
          "internalType": "address",
          "name": "account",
          "type": "address"
        }
      ],
      "name": "lastDepositTime",
      "outputs": [
        {
          "internalType": "uint256",
          "name": "",
          "type": "uint256"
        }
      ],
      "stateMutability": "view",
      "type": "function"
    },
    {
      "inputs": [],
      "name": "owner",
      "outputs": [
        {
          "internalType": "address",
          "name": "",
          "type": "address"
        }
      ],
      "stateMutability": "view",
      "type": "function"
    },
    {
      "inputs": [],
      "name": "renounceOwnership",
      "outputs": [],
      "stateMutability": "nonpayable",
      "type": "function"
    },
    {
      "inputs": [],
      "name": "rewardTotal",
      "outputs": [
        {
          "internalType": "uint256",
          "name": "",
          "type": "uint256"
        }
      ],
      "stateMutability": "view",
      "type": "function"
    },
    {
      "inputs": [
        {
          "internalType": "uint256",
          "name": "duration",
          "type": "uint256"
        }
      ],
      "name": "setDuration",
      "outputs": [],
      "stateMutability": "nonpayable",
      "type": "function"
    },
    {
      "inputs": [],
      "name": "totalStaked",
      "outputs": [
        {
          "internalType": "uint256",
          "name": "",
          "type": "uint256"
        }
      ],
      "stateMutability": "view",
      "type": "function"
    },
    {
      "inputs": [
        {
          "internalType": "address",
          "name": "newOwner",
          "type": "address"
        }
      ],
      "name": "transferOwnership",
      "outputs": [],
      "stateMutability": "nonpayable",
      "type": "function"
    },
    {
      "inputs": [],
      "name": "withdraw",
      "outputs": [],
      "stateMutability": "nonpayable",
      "type": "function"
    }
  ],
  "bytecode": "0x60806040526002600555600060065560006007556224ea006008553480156200002757600080fd5b50604051620019cd380380620019cd83398181016040528101906200004d9190620001ff565b6200006d62000061620000b560201b60201c565b620000bd60201b60201c565b80600160006101000a81548173ffffffffffffffffffffffffffffffffffffffff021916908373ffffffffffffffffffffffffffffffffffffffff1602179055505062000231565b600033905090565b60008060009054906101000a900473ffffffffffffffffffffffffffffffffffffffff169050816000806101000a81548173ffffffffffffffffffffffffffffffffffffffff021916908373ffffffffffffffffffffffffffffffffffffffff1602179055508173ffffffffffffffffffffffffffffffffffffffff168173ffffffffffffffffffffffffffffffffffffffff167f8be0079c531659141344cd1fd0a4f28419497f9722a3daafe3b4186f6b6457e060405160405180910390a35050565b600080fd5b600073ffffffffffffffffffffffffffffffffffffffff82169050919050565b6000620001b38262000186565b9050919050565b6000620001c782620001a6565b9050919050565b620001d981620001ba565b8114620001e557600080fd5b50565b600081519050620001f981620001ce565b92915050565b60006020828403121562000218576200021762000181565b5b60006200022884828501620001e8565b91505092915050565b61178c80620002416000396000f3fe608060405234801561001057600080fd5b50600436106101005760003560e01c80638da5cb5b11610097578063e90bfc4b11610066578063e90bfc4b14610263578063f2fde38b14610281578063f6be71d11461029d578063f959680b146102b957610100565b80638da5cb5b146101ed578063ad2e8c9b1461020b578063b53b26a114610229578063b6b55f251461024757610100565b806370a08231116100d357806370a0823114610179578063715018a6146101a957806374de4ec4146101b3578063817b1cd2146101cf57610100565b80630252775314610105578063245c7c60146101355780633ccfd60b14610153578063424d40061461015d575b600080fd5b61011f600480360381019061011a9190610f8b565b6102d7565b60405161012c9190610fd1565b60405180910390f35b61013d610320565b60405161014a9190610fd1565b60405180910390f35b61015b610326565b005b61017760048036038101906101729190611018565b610628565b005b610193600480360381019061018e9190610f8b565b6106b8565b6040516101a09190610fd1565b60405180910390f35b6101b1610701565b005b6101cd60048036038101906101c89190611058565b610715565b005b6101d761093b565b6040516101e49190610fd1565b60405180910390f35b6101f5610941565b6040516102029190611094565b60405180910390f35b61021361096a565b6040516102209190610fd1565b60405180910390f35b610231610974565b60405161023e9190610fd1565b60405180910390f35b610261600480360381019061025c9190611058565b61097a565b005b61026b610c15565b604051610278919061110e565b60405180910390f35b61029b60048036038101906102969190610f8b565b610c3b565b005b6102b760048036038101906102b29190611058565b610cbe565b005b6102c1610d4d565b6040516102ce9190610fd1565b60405180910390f35b6000600260008373ffffffffffffffffffffffffffffffffffffffff1673ffffffffffffffffffffffffffffffffffffffff168152602001908152602001600020549050919050565b60085481565b4260085460026000610336610d53565b73ffffffffffffffffffffffffffffffffffffffff1673ffffffffffffffffffffffffffffffffffffffff1681526020019081526020016000205461037b9190611158565b11156103bc576040517f08c379a00000000000000000000000000000000000000000000000000000000081526004016103b3906111e9565b60405180910390fd5b6000600360006103ca610d53565b73ffffffffffffffffffffffffffffffffffffffff1673ffffffffffffffffffffffffffffffffffffffff168152602001908152602001600020549050600060036000610415610d53565b73ffffffffffffffffffffffffffffffffffffffff1673ffffffffffffffffffffffffffffffffffffffff16815260200190815260200160002081905550600061046682610461610d53565b610d5b565b9050816007600082825461047a9190611209565b92505081905550600060075410156104c7576040517f08c379a00000000000000000000000000000000000000000000000000000000081526004016104be90611289565b60405180910390fd5b80600660008282546104d99190611209565b9250508190555060006006541015610526576040517f08c379a000000000000000000000000000000000000000000000000000000000815260040161051d9061131b565b60405180910390fd5b600160009054906101000a900473ffffffffffffffffffffffffffffffffffffffff1673ffffffffffffffffffffffffffffffffffffffff1663a9059cbb61056c610d53565b83856105789190611158565b6040518363ffffffff1660e01b815260040161059592919061133b565b6020604051808303816000875af11580156105b4573d6000803e3d6000fd5b505050506040513d601f19601f820116820180604052508101906105d8919061139c565b507f884edad9ce6fa2440d8a54cc123490eb96d2768479d49ff9c7366125a9424364610602610d53565b828461060e9190611158565b60405161061c92919061133b565b60405180910390a15050565b610630610de6565b80600460008473ffffffffffffffffffffffffffffffffffffffff1673ffffffffffffffffffffffffffffffffffffffff168152602001908152602001600020819055507fb7a9a9243f1b40c58dca321d1be1dd151a31cc9f61b7160781ebfe62ac99415a61069d610d53565b826040516106ac92919061133b565b60405180910390a15050565b6000600360008373ffffffffffffffffffffffffffffffffffffffff1673ffffffffffffffffffffffffffffffffffffffff168152602001908152602001600020549050919050565b610709610de6565b6107136000610e64565b565b8060046000610722610d53565b73ffffffffffffffffffffffffffffffffffffffff1673ffffffffffffffffffffffffffffffffffffffff16815260200190815260200160002054101561079e576040517f08c379a00000000000000000000000000000000000000000000000000000000081526004016107959061143b565b60405180910390fd5b80600460006107ab610d53565b73ffffffffffffffffffffffffffffffffffffffff1673ffffffffffffffffffffffffffffffffffffffff168152602001908152602001600020546107f09190611209565b600460006107fc610d53565b73ffffffffffffffffffffffffffffffffffffffff1673ffffffffffffffffffffffffffffffffffffffff16815260200190815260200160002081905550806006546108489190611158565b600681905550600160009054906101000a900473ffffffffffffffffffffffffffffffffffffffff1673ffffffffffffffffffffffffffffffffffffffff166323b872dd610894610d53565b30846040518463ffffffff1660e01b81526004016108b49392919061145b565b6020604051808303816000875af11580156108d3573d6000803e3d6000fd5b505050506040513d601f19601f820116820180604052508101906108f7919061139c565b507f9f15a78649bd76613c4a49ca8a67ae948862a0eee791ca3d0380853f9afa624f610921610d53565b8260405161093092919061133b565b60405180910390a150565b60075481565b60008060009054906101000a900473ffffffffffffffffffffffffffffffffffffffff16905090565b6000600854905090565b60055481565b60006109d36003600061098b610d53565b73ffffffffffffffffffffffffffffffffffffffff1673ffffffffffffffffffffffffffffffffffffffff168152602001908152602001600020546109ce610d53565b610d5b565b9050606460055460646109e69190611158565b82846007546109f59190611158565b6109ff9190611158565b610a099190611492565b610a139190611503565b6006541015610a57576040517f08c379a0000000000000000000000000000000000000000000000000000000008152600401610a4e906115a6565b60405180910390fd5b8082610a639190611158565b60076000828254610a749190611158565b925050819055508082610a879190611158565b60036000610a93610d53565b73ffffffffffffffffffffffffffffffffffffffff1673ffffffffffffffffffffffffffffffffffffffff1681526020019081526020016000206000828254610adc9190611158565b925050819055504260026000610af0610d53565b73ffffffffffffffffffffffffffffffffffffffff1673ffffffffffffffffffffffffffffffffffffffff16815260200190815260200160002081905550600160009054906101000a900473ffffffffffffffffffffffffffffffffffffffff1673ffffffffffffffffffffffffffffffffffffffff166323b872dd3230856040518463ffffffff1660e01b8152600401610b8d9392919061145b565b6020604051808303816000875af1158015610bac573d6000803e3d6000fd5b505050506040513d601f19601f82011682018060405250810190610bd0919061139c565b507fe1fffcc4923d04b559f4d29a8bfc6cda04eb5b0d3c460751c2402c5c5cc9109c610bfa610d53565b83604051610c0992919061133b565b60405180910390a15050565b600160009054906101000a900473ffffffffffffffffffffffffffffffffffffffff1681565b610c43610de6565b600073ffffffffffffffffffffffffffffffffffffffff168173ffffffffffffffffffffffffffffffffffffffff1603610cb2576040517f08c379a0000000000000000000000000000000000000000000000000000000008152600401610ca990611638565b60405180910390fd5b610cbb81610e64565b50565b610cc6610de6565b62093a80811015610d0c576040517f08c379a0000000000000000000000000000000000000000000000000000000008152600401610d03906116ca565b60405180910390fd5b806008819055507fda04197eff7312b09391ac91a9abd15f1c06bc64fa29883c65945fbf36ee8b7981604051610d429190610fd1565b60405180910390a150565b60065481565b600033905090565b600080600260008473ffffffffffffffffffffffffffffffffffffffff1673ffffffffffffffffffffffffffffffffffffffff1681526020019081526020016000205442610da99190611209565b90506064600854610dba9190611492565b8460055483610dc99190611492565b610dd39190611492565b610ddd9190611503565b91505092915050565b610dee610d53565b73ffffffffffffffffffffffffffffffffffffffff16610e0c610941565b73ffffffffffffffffffffffffffffffffffffffff1614610e62576040517f08c379a0000000000000000000000000000000000000000000000000000000008152600401610e5990611736565b60405180910390fd5b565b60008060009054906101000a900473ffffffffffffffffffffffffffffffffffffffff169050816000806101000a81548173ffffffffffffffffffffffffffffffffffffffff021916908373ffffffffffffffffffffffffffffffffffffffff1602179055508173ffffffffffffffffffffffffffffffffffffffff168173ffffffffffffffffffffffffffffffffffffffff167f8be0079c531659141344cd1fd0a4f28419497f9722a3daafe3b4186f6b6457e060405160405180910390a35050565b600080fd5b600073ffffffffffffffffffffffffffffffffffffffff82169050919050565b6000610f5882610f2d565b9050919050565b610f6881610f4d565b8114610f7357600080fd5b50565b600081359050610f8581610f5f565b92915050565b600060208284031215610fa157610fa0610f28565b5b6000610faf84828501610f76565b91505092915050565b6000819050919050565b610fcb81610fb8565b82525050565b6000602082019050610fe66000830184610fc2565b92915050565b610ff581610fb8565b811461100057600080fd5b50565b60008135905061101281610fec565b92915050565b6000806040838503121561102f5761102e610f28565b5b600061103d85828601610f76565b925050602061104e85828601611003565b9150509250929050565b60006020828403121561106e5761106d610f28565b5b600061107c84828501611003565b91505092915050565b61108e81610f4d565b82525050565b60006020820190506110a96000830184611085565b92915050565b6000819050919050565b60006110d46110cf6110ca84610f2d565b6110af565b610f2d565b9050919050565b60006110e6826110b9565b9050919050565b60006110f8826110db565b9050919050565b611108816110ed565b82525050565b600060208201905061112360008301846110ff565b92915050565b7f4e487b7100000000000000000000000000000000000000000000000000000000600052601160045260246000fd5b600061116382610fb8565b915061116e83610fb8565b925082820190508082111561118657611185611129565b5b92915050565b600082825260208201905092915050565b7f5374616b696e6720706572696f64206973206e6f74206f7665722e0000000000600082015250565b60006111d3601b8361118c565b91506111de8261119d565b602082019050919050565b60006020820190508181036000830152611202816111c6565b9050919050565b600061121482610fb8565b915061121f83610fb8565b925082820390508181111561123757611236611129565b5b92915050565b7f4d697373696e6720455243323020746f6b656e73206f6e20636f6e7472616374600082015250565b600061127360208361118c565b915061127e8261123d565b602082019050919050565b600060208201905081810360008301526112a281611266565b9050919050565b7f4d697373696e6720455243323020746f6b656e7320666f72207265776172642060008201527f6f6e20636f6e7472616374000000000000000000000000000000000000000000602082015250565b6000611305602b8361118c565b9150611310826112a9565b604082019050919050565b60006020820190508181036000830152611334816112f8565b9050919050565b60006040820190506113506000830185611085565b61135d6020830184610fc2565b9392505050565b60008115159050919050565b61137981611364565b811461138457600080fd5b50565b60008151905061139681611370565b92915050565b6000602082840312156113b2576113b1610f28565b5b60006113c084828501611387565b91505092915050565b7f52657472696576616c2076616c75652065786365656420617574686f72697a6560008201527f64206c696d69742e000000000000000000000000000000000000000000000000602082015250565b600061142560288361118c565b9150611430826113c9565b604082019050919050565b6000602082019050818103600083015261145481611418565b9050919050565b60006060820190506114706000830186611085565b61147d6020830185611085565b61148a6040830184610fc2565b949350505050565b600061149d82610fb8565b91506114a883610fb8565b92508282026114b681610fb8565b915082820484148315176114cd576114cc611129565b5b5092915050565b7f4e487b7100000000000000000000000000000000000000000000000000000000600052601260045260246000fd5b600061150e82610fb8565b915061151983610fb8565b925082611529576115286114d4565b5b828204905092915050565b7f4e6f7420656e6f75676820746f6b656e20746f2070617920322520726577617260008201527f642e000000000000000000000000000000000000000000000000000000000000602082015250565b600061159060228361118c565b915061159b82611534565b604082019050919050565b600060208201905081810360008301526115bf81611583565b9050919050565b7f4f776e61626c653a206e6577206f776e657220697320746865207a65726f206160008201527f6464726573730000000000000000000000000000000000000000000000000000602082015250565b600061162260268361118c565b915061162d826115c6565b604082019050919050565b6000602082019050818103600083015261165181611615565b9050919050565b7f4475726174696f6e2073686f756c64206265206174206c65617374203120776560008201527f656b2e0000000000000000000000000000000000000000000000000000000000602082015250565b60006116b460238361118c565b91506116bf82611658565b604082019050919050565b600060208201905081810360008301526116e3816116a7565b9050919050565b7f4f776e61626c653a2063616c6c6572206973206e6f7420746865206f776e6572600082015250565b600061172060208361118c565b915061172b826116ea565b602082019050919050565b6000602082019050818103600083015261174f81611713565b905091905056fea2646970667358221220de3f19ef34f5670b546fe950620dd9336b65b7e6c7079016cf892425c575e9f164736f6c63430008110033",
  "linkReferences": {},
  "deployedLinkReferences": {}
}